:020000040800F2
:10000000005000207D6400087D5B0008855B0008CF
:100010008D5B0008955B00089D5B000800000000F8
:10002000000000000000000000000000A55B0008C8
:10003000B15B000800000000BD5B0008C95B000860
:10004000C5640008C5640008C5640008C5640008EC
:10005000C5640008D55B0008C5640008C5640008D5
:10006000C5640008C5640008C5640008C5640008CC
:10007000C5640008C5640008E15B0008C5640008A9
:10008000F55B0008C5640008C5640008C564000885
:10009000095C0008C5640008C5640008C564000860
:1000A000C5640008C5640008C5640008C56400088C
:1000B000C56400081D5C0008C5640008C56400082C
:1000C000C5640008C5640008C5640008C56400086C
:1000D000C5640008315C0008455C0008C564000880
:1000E000C5640008C5640008C5640008000000007D
:1000F0000000000000000000000000000000000000
:0C01000000000000000000005FF808F1A3
:1001100070B54FF0FF0C4CF4E06C1CEA11541DBF9D
:100120001CEA135594EA0C0F95EA0C0F00F0DEF868
:100130002C4481EA030621EA4C5123EA4C5350EA4D
:10014000013518BF52EA033541F4801143F480139E
:1001500038D0A0FB02CE4FF00005E1FB02E506F02F
:100160000042E0FB03E54FF00006E1FB03569CF084
:10017000000F18BF4EF0010EA4F1FF04B6F5007F8A
:1001800064F5407404D25FEA4E0E6D4146EB0606FC
:1001900042EAC62141EA55514FEAC52040EA5E5085
:1001A0004FEACE2EB4F1FD0C88BFBCF5E06F1ED82F
:1001B000BEF1004F08BF5FEA500E50F1000041EB66
:1001C000045170BD06F0004646EA010140EA020013
:1001D00081EA0301B4EB5C04C2BFD4EB0C0541EA35
:1001E000045170BD41F480114FF0000E013C00F34A
:1001F000AB8014F1360FDEBF002001F0004170BD6E
:10020000C4F10004203C35DA0C341BDC04F1140486
:10021000C4F1200500FA05F320FA04F001FA05F212
:1002200040EA020001F0004221F0004110EBD370DF
:1002300021FA04F642EB06015EEA430E08BF20EA0B
:10024000D37070BDC4F10C04C4F1200500FA04F3AE
:1002500020FA05F001FA04F240EA020001F0004140
:1002600010EBD37041F100015EEA430E08BF20EAB3
:10027000D37070BDC4F1200500FA05F24EEA020EFB
:1002800020FA04F301FA05F243EA020321FA04F02A
:1002900001F0004121FA04F220EA020000EBD370E1
:1002A0005EEA430E08BF20EAD37070BD94F0000FE1
:1002B0000FD101F00046400041EB010111F4801F15
:1002C00008BF013CF7D041EA060195F0000F18BFC6
:1002D000704703F00046520043EB030313F4801F02
:1002E00008BF013DF7D043EA0603704794EA0C0FBC
:1002F0000CEA135518BF95EA0C0F0CD050EA4106D2
:1003000018BF52EA4306D1D181EA030101F000414E
:100310004FF0000070BD50EA410606BF1046194676
:1003200052EA430619D094EA0C0F02D150EA013682
:1003300013D195EA0C0F05D152EA03361CBF1046C3
:1003400019460AD181EA030101F0004141F0FE4162
:1003500041F470014FF0000070BD41F0FE4141F4E6
:10036000780170BD81F0004102E000BF83F00043DE
:1003700030B54FEA41044FEA430594EA050F08BF40
:1003800090EA020F1FBF54EA000C55EA020C7FEA04
:10039000645C7FEA655C00F0E2804FEA5454D4EB81
:1003A0005555B8BF6D420CDD2C4480EA020281EA4B
:1003B000030382EA000083EA010180EA020281EA83
:1003C0000303362D88BF30BD11F0004F4FEA0131D5
:1003D0004FF4801C4CEA113102D0404261EB4101E4
:1003E00013F0004F4FEA03334CEA133302D052426A
:1003F00063EB430394EA050F00F0A780A4F1010426
:10040000D5F1200E0DDB02FA0EFC22FA05F280185F
:1004100041F1000103FA0EF2801843FA05F3594145
:100420000EE0A5F120050EF1200E012A03FA0EFCC4
:1004300028BF4CF0020C43FA05F3C01851EBE371EE
:1004400001F0004507D54FF0000EDCF1000C7EEB0B
:1004500000006EEB0101B1F5801F1BD3B1F5001F49
:100460000CD349085FEA30004FEA3C0C04F1010468
:100470004FEA445212F5800F80F09A80BCF1004F91
:1004800008BF5FEA500C50F1000041EB045141EA13
:10049000050130BD5FEA4C0C404141EB0101013CDC
:1004A00028BFB1F5801FE9D291F0000F04BF0146CB
:1004B0000020B1FA81F308BF2033A3F10B03B3F19D
:1004C00020020CDA0C3208DD02F1140CC2F10C022D
:1004D00001FA0CF021FA02F10CE002F11402D8BF8B
:1004E000C2F1200C01FA02F120FA0CFCDCBF41EA57
:1004F0000C019040E41AA2BF01EB0451294330BD26
:100500006FEA04041F3C1CDA0C340EDC04F1140402
:10051000C4F1200220FA04F001FA02F340EA0300D9
:1005200021FA04F345EA030130BDC4F10C04C4F11F
:10053000200220FA02F001FA04F340EA03002946FF
:1005400030BD21FA04F0294630BD94F0000F83F449
:10055000801306BF81F480110134013D4EE77FEA2C
:10056000645C18BF7FEA655C29D094EA050F08BF78
:1005700090EA020F05D054EA000C04BF1946104659
:1005800030BD91EA030F1EBF0021002030BD5FEA9D
:10059000545C05D14000494128BF41F0004130BDC5
:1005A00014F580043CBF01F5801130BD01F0004519
:1005B00045F0FE4141F470014FF0000030BD7FEA8C
:1005C000645C1ABF194610467FEA655C1CBF0B4687
:1005D000024650EA013406BF52EA033591EA030F9E
:1005E00041F4002130BD00BF90F0000F04BF002196
:1005F000704730B54FF4806404F132044FF00005C9
:100600004FF0000150E700BF90F0000F04BF002141
:10061000704730B54FF4806404F1320410F00045A7
:1006200048BF40424FF000013EE700BF42004FEAA2
:10063000E2014FEA31014FEA02701FBF12F07F431F
:1006400093F07F4F81F06051704732F07F4208BFD6
:10065000704793F07F4F04BF41F40021704730B5DD
:100660004FF4607401F0004521F000411CE700BF29
:1006700050EA010208BF704730B54FF000050AE0AC
:1006800050EA010208BF704730B511F0004502D5AD
:10069000404261EB41014FF4806404F132045FEAAF
:1006A000915C3FF4D8AE4FF003025FEADC0C18BF58
:1006B00003325FEADC0C18BF033202EBDC02C2F14A
:1006C000200300FA03FC20FA02F001FA03FE40EADC
:1006D0000E0021FA02F11444BDE600BF4FF0FF3CCA
:1006E00006E000BF4FF0010C02E000BF4FF0010C2C
:1006F0004DF804CD4FEA410C7FEA6C5C4FEA430CA5
:1007000018BF7FEA6C5C1BD001B050EA410C0CBFF3
:1007100052EA430C91EA030F02BF90EA020F002055
:10072000704710F1000F91EA030F58BF994208BFBC
:1007300090422CBFD8176FEAE37040F00100704779
:100740004FEA410C7FEA6C5C02D150EA013C07D1D0
:100750004FEA430C7FEA6C5CD6D152EA033CD3D01B
:100760005DF8040B704700BF8446104662468C4615
:100770001946634600E000BF01B5FFF7B7FF002848
:1007800048BF10F1000F01BD4DF808EDFFF7F4FF71
:100790000CBF012000205DF808FB00BF4DF808EDFC
:1007A000FFF7EAFF34BF012000205DF808FB00BF1F
:1007B0004DF808EDFFF7E0FF94BF012000205DF841
:1007C00008FB00BF4DF808EDFFF7CEFF94BF0120F6
:1007D00000205DF808FB00BF4DF808EDFFF7C4FFEF
:1007E00034BF012000205DF808FB00BF4FEA410242
:1007F00012F5001215D211D56FF47873B3EB625273
:1008000012D94FEAC12343F0004343EA505311F099
:10081000004F23FA02F018BF404270474FF000002B
:10082000704750EA013005D111F0004008BF6FF069
:10083000004070474FF00000704700BF4FEA410290
:10084000B2F1E04324BFB3F5001CDCF1FE5C0DD92E
:1008500001F0004C4FEAC0024CEA5070B2F1004F78
:1008600040EB830008BF20F00100704711F0804F7B
:1008700021D113F13872BCBF01F00040704741F440
:1008800080114FEA5252C2F11802C2F1200C10FA44
:100890000CF320FA02F018BF40F001004FEAC12328
:1008A0004FEAD32303FA0CFC40EA0C0023FA02F3CC
:1008B0004FEA4303CCE77FEA625307D150EA0133A2
:1008C0001EBF4FF0FE4040F44000704701F0004072
:1008D00040F0FE4040F40000704700BF80F0004050
:1008E00002E000BF81F0004142001FBF5FEA410308
:1008F00092EA030F7FEA226C7FEA236C6AD04FEA08
:100900001262D2EB1363C1BFD2184140484041404C
:10091000B8BF5B42192B88BF704710F0004F40F4FE
:10092000000020F07F4018BF404211F0004F41F41A
:10093000000121F07F4118BF494292EA030F3FD0E6
:10094000A2F1010241FA03FC10EB0C00C3F12003F9
:1009500001FA03F100F0004302D5494260EB400088
:10096000B0F5000F13D3B0F1807F06D340084FEAF3
:10097000310102F10102FE2A51D2B1F1004F40EBE8
:10098000C25008BF20F0010040EA03007047490050
:1009900040EB0000013A28BFB0F5000FEDD2B0FAED
:1009A00080FCACF1080CB2EB0C0200FA0CF0AABF10
:1009B00000EBC25052421843BCBFD04018437047AE
:1009C00092F0000F81F4000106BF80F400000132B4
:1009D000013BB5E74FEA41037FEA226C18BF7FEA8B
:1009E000236C21D092EA030F04D092F0000F08BFCD
:1009F0000846704790EA010F1CBF0020704712F0B4
:100A00007F4F04D1400028BF40F00040704712F1F2
:100A100000723CBF00F50000704700F0004343F057
:100A2000FE4040F4000070477FEA226216BF08468D
:100A30007FEA23630146420206BF5FEA412390EA50
:100A4000010F40F4800070474FF0000304E000BF46
:100A500010F0004348BF40425FEA000C08BF7047F7
:100A600043F0964301464FF000001CE050EA0102BB
:100A700008BF70474FF000030AE000BF50EA0102D0
:100A800008BF704711F0004302D5404261EB4101BD
:100A90005FEA010C02BF84460146002043F0B643E2
:100AA00008BFA3F18053A3F50003BCFA8CF2083A07
:100AB000A3EBC25310DB01FA02FC634400FA02FC10
:100AC000C2F12002BCF1004F20FA02F243EB020017
:100AD00008BF20F00100704702F1200201FA02FC79
:100AE000C2F1200250EA4C0021FA02F243EB02006C
:100AF00008BF20EADC7070474FF0FF0C1CEAD052B0
:100B00001EBF1CEAD15392EA0C0F93EA0C0F6FD070
:100B10001A4480EA010C400218BF5FEA41211ED04E
:100B20004FF0006343EA501043EA5111A0FB01313A
:100B30000CF00040B1F5000F3EBF490041EAD3710F
:100B40005B0040EA010062F17F02FD2A1DD8B3F18B
:100B5000004F40EBC25008BF20F00100704790F0FA
:100B6000000F0CF0004C08BF49024CEA502040EA4C
:100B700051207F3AC2BFD2F1FF0340EAC250704712
:100B800040F400004FF00003013A5DDC12F1190F50
:100B9000DCBF00F000407047C2F10002410021FAC2
:100BA00002F1C2F1200200FA02FC5FEA310040F1DA
:100BB000000053EA4C0308BF20EADC70704792F053
:100BC000000F00F0004C02BF400010F4000F013A8B
:100BD000F9D040EA0C0093F0000F01F0004C02BF86
:100BE000490011F4000F013BF9D041EA0C018FE7F5
:100BF0000CEAD15392EA0C0F18BF93EA0C0F0AD0FB
:100C000030F0004C18BF31F0004CD8D180EA010020
:100C100000F00040704790F0000F17BF90F0004FB9
:100C2000084691F0000F91F0004F14D092EA0C0F9B
:100C300001D142020FD193EA0C0F03D14B0218BF2E
:100C4000084608D180EA010000F0004040F0FE4074
:100C500040F40000704740F0FE4040F44000704710
:100C60004FF0FF0C1CEAD0521EBF1CEAD15392EA8F
:100C70000C0F93EA0C0F69D0A2EB030280EA010C7F
:100C800049024FEA402037D04FF0805343EA111118
:100C900043EA10130CF000408B4238BF5B0042F176
:100CA0007D024FF4000C8B4224BF5B1A40EA0C001B
:100CB000B3EB510F24BFA3EB510340EA5C00B3EB4D
:100CC000910F24BFA3EB910340EA9C00B3EBD10F3B
:100CD00024BFA3EBD10340EADC001B0118BF5FEA8D
:100CE0001C1CE0D1FD2A3FF650AF8B4240EBC250B6
:100CF00008BF20F0010070470CF0004C4CEA502077
:100D00007F32C2BFD2F1FF0340EAC250704740F4C5
:100D100000004FF00003013A37E792F0000F00F0B7
:100D2000004C02BF400010F4000F013AF9D040EA35
:100D30000C0093F0000F01F0004C02BF490011F4C9
:100D4000000F013BF9D041EA0C0195E70CEAD153C1
:100D500092EA0C0F08D142027FF47DAF93EA0C0FA8
:100D60007FF470AF084676E793EA0C0F04D14B028C
:100D70003FF44CAF08466EE730F0004C18BF31F03E
:100D8000004CCAD130F000427FF45CAF31F0004338
:100D90007FF43CAF5FE700BF4FEA4002B2F1FE4F85
:100DA0000FD34FF09E03B3EB12620DD94FEA00232D
:100DB00043F0004310F0004F23FA02F018BF404206
:100DC00070474FF00000704712F1610F01D14202ED
:100DD00005D110F0004008BF6FF0004070474FF0A1
:100DE000000070470348044B834202D0034B03B119
:100DF000184770470C0000200C0000200000000085
:100E00000548064B1B1AD90F01EBA301491002D06C
:100E1000034B03B1184770470C0000200C00002062
:100E20000000000010B5064C237843B9FFF7DAFF45
:100E3000044B13B10448AFF300800123237010BDAD
:100E40000C000020000000006878000808B5054B81
:100E50001BB105490548AFF30080BDE80840FFF726
:100E6000CFBF00BF0000000010000020687800081D
:100E700080B400AF00BFBD4680BC704780B584B071
:100E800000AF78607B68002B01D1012309E27B6809
:100E90001B688F4A934204D04FF48F718D4804F041
:100EA00028FE7B681B7E002B08D07B681B7E012BF5
:100EB00004D040F21F11874804F01BFE7B685B7E64
:100EC000002B08D07B685B7E012B04D04FF490711F
:100ED000804804F00EFE7B689B7E002B08D07B6868
:100EE0009B7E012B04D040F221117A4804F001FED0
:100EF0007B68DB7E002B08D07B68DB7E012B04D077
:100F00004FF49171734804F0F4FD7B681B7F002B54
:100F100008D07B681B7F012B04D040F223116D4861
:100F200004F0E7FD7B685B7F002B08D07B685B7F6C
:100F3000012B04D04FF49271664804F0DAFD7B680F
:100F40009B68002B13D07B689B68B3F1804F0ED059
:100F50007B689B68B3F1004F09D07B689B68B3F155
:100F6000404F04D040F225115A4804F0C2FD7B687E
:100F7000DB68002B13D07B68DB68B3F1807F0ED079
:100F80007B68DB68B3F1007F09D07B68DB68B3F175
:100F9000407F04D04FF493714E4804F0AAFD7B6863
:100FA0001B69002B4FD07B681B69B3F5803F4AD08B
:100FB0007B681B69B3F5003F45D07B681B69B3F5BF
:100FC000403F40D07B681B69B3F5802F3BD07B68E6
:100FD0001B69B3F5A02F36D07B681B69B3F5C02F12
:100FE00031D07B681B69B3F5E02F2CD07B681B697F
:100FF000B3F5002F27D07B681B69B3F5102F22D0E3
:101000007B681B69B3F5202F1DD07B681B69B3F586
:10101000302F18D07B681B69B3F5402F13D07B6845
:101020001B69B3F5502F0ED07B681B69B3F5602F99
:1010300009D07B681B69B3F5702F04D040F22711EB
:10104000244804F056FD7B685B69002B27D07B6841
:101050005B69B3F5801F22D07B685B69B3F5001F25
:101060001DD07B685B69B3F5401F18D07B685B6956
:10107000B3F5800F13D07B685B69B3F5A00F0ED07A
:101080007B685B69B3F5C00F09D07B685B69B3F51A
:10109000E00F04D04FF494710E4804F02AFD7B68F1
:1010A0005B68002B04D07B685B68B3F5806F04D964
:1010B00040F22911074804F01CFD7B6893F82030AA
:1010C000DBB2002B08D1786804F0BCFB04E000BF61
:1010D00000640040807800087B681B681A687B68A1
:1010E0001B6842F001021A6000F04AFFF86012E04B
:1010F00000F046FF0246FB68D31A0A2B0BD97B6827
:101100005B6A43F400327B685A627B68052283F88D
:1011100020200123C5E07B681B685B6803F00103A6
:10112000002BE5D07B681B681A687B681B6822F07F
:1011300002021A6000F024FFF86012E000F020FFC5
:101140000246FB68D31A0A2B0BD97B685B6A43F40F
:1011500000327B685A627B68052283F820200123D5
:101160009FE07B681B685B6803F00203002BE5D1FE
:101170007B681B7E012B08D17B681B681A687B6823
:101180001B6842F080021A6007E07B681B681A68DF
:101190007B681B6822F080021A607B685B7E012BF3
:1011A00008D17B681B681A687B681B6842F04002A4
:1011B0001A6007E07B681B681A687B681B6822F06E
:1011C00040021A607B689B7E012B08D17B681B68FC
:1011D0001A687B681B6842F020021A6007E07B688F
:1011E0001B681A687B681B6822F020021A607B6803
:1011F000DB7E012B08D17B681B681A687B681B6843
:1012000022F010021A6007E07B681B681A687B688E
:101210001B6842F010021A607B681B7F012B08D10B
:101220007B681B681A687B681B6842F008021A60BA
:1012300007E07B681B681A687B681B6822F008025D
:101240001A607B685B7F012B08D17B681B681A687A
:101250007B681B6842F004021A6007E07B681B6829
:101260001A687B681B6822F004021A607B689A681F
:101270007B68DB681A437B681B691A437B685B6980
:1012800042EA03017B685B685A1E7B681B680A435D
:10129000DA617B6800225A627B68012283F8202091
:1012A000002318461037BD4680BD00BF80B586B00C
:1012B00000AF786039607B681B687B617B6893F85E
:1012C0002030FB74FB7C012B03D0FB7C022B40F015
:1012D0000F813B681B68B3F5803F04D340F2523165
:1012E000894804F006FC3B685B68B3F5803F04D393
:1012F00040F25331844804F0FCFB3B689B68B3F533
:10130000803F04D34FF455717F4804F0F2FB3B68F3
:10131000DB68B3F5803F04D340F255317A4804F0DE
:10132000E8FB3B689B69002B08D03B689B69012B5D
:1013300004D040F25631744804F0DBFB3B68DB69B3
:10134000002B08D03B68DB69012B04D040F25731F9
:101350006D4804F0CEFB3B681B69002B08D03B684E
:101360001B69012B04D04FF45671674804F0C1FB90
:101370003B681B6A002B08D03B681B6A012B04D01A
:1013800040F25931604804F0B4FB3B685B690D2BB7
:1013900004D940F267315C4804F0ABFB7B69D3F8B9
:1013A000003243F001027B69C3F800223B685B69AD
:1013B00003F01F03012202FA03F3FB607B69D3F8F9
:1013C0001C22FB68DB431A407B69C3F81C223B6884
:1013D000DB69002B23D17B69D3F80C22FB68DB434C
:1013E0001A407B69C3F80C223B68DB6819043B6830
:1013F0005B689BB23A68526919437B69483243F88B
:1014000032103B689B6819043B681B689AB23B68C2
:101410005B690A4379694833DB000B445A603B68D7
:10142000DB69012B22D17B69D3F80C22FB681A43BC
:101430007B69C3F80C223B681B6819043B685B6836
:101440009BB23A68526919437B69483243F83210BB
:101450003B689B6819043B68DB689AB23B685B6930
:101460000A4379694833DB000B445A603B689B6947
:10147000002B09D17B69D3F80422FB68DB431A40B7
:101480007B69C3F8042207E07B69D3F80422FB6878
:101490001A437B69C3F804223B681B69002B09D1FE
:1014A0007B69D3F81422FB68DB431A407B69C3F8DD
:1014B000142207E07B69D3F81422FB681A437B6986
:1014C000C3F814223B681B6A012B07D17B69D3F850
:1014D0001C22FB681A437B69C3F81C227B69D3F882
:1014E000003223F001027B69C3F80022002306E0EA
:1014F0007B685B6A43F480227B685A62012318464A
:101500001837BD4680BD00BF8078000880B584B024
:1015100000AF78607B6893F82030DBB2012B2ED1CE
:101520007B68022283F820207B681B681A687B682E
:101530001B6822F001021A6000F022FDF86012E040
:1015400000F01EFD0246FB68D31A0A2B0BD97B68FC
:101550005B6A43F400327B685A627B68052283F839
:101560002020012312E07B681B685B6803F0010305
:10157000002BE5D17B6800225A62002306E07B68DD
:101580005B6A43F400227B685A62012318461037D5
:10159000BD4680BD80B588B000AFF860B9607A60A4
:1015A0003B60FB6893F82030FB77FB681B689B6807
:1015B000BB61BB689B68002B08D0BB689B68042B91
:1015C00004D040F2CE417F4804F093FABB68DB6858
:1015D000002B08D0BB68DB68022B04D040F2CF415F
:1015E000784804F086FABB681B69082B04D94FF4CD
:1015F0009A61744804F07DFABB689B68002B0AD19D
:10160000BB681B68B3F5006F0FD340F2D3416D4840
:1016100004F06FFA09E0BB685B68B3F1005F04D3C4
:1016200040F2D741674804F064FABB681B7D002B89
:1016300008D0BB681B7D012B04D040F2D941614822
:1016400004F057FAFB7F012B03D0FB7F022B40F005
:10165000AD80BB6903F08063002B0AD1BB6903F046
:101660000063002B05D1BB6903F08053002B00F011
:101670009580BB691B0E03F003037B6101227B692C
:101680009A403B681A60BB689B68002B0DD1BB6811
:101690001B685A05BB68DB68F96809681A437B69EF
:1016A00018331B010B441A600FE0BB685B68DA005B
:1016B000BB689B681A43BB68DB68F96809681A4312
:1016C0007B6918331B010B441A60FB681968BB68FF
:1016D0001A697B6918331B010B4404331A60BB6819
:1016E0001B7D012B11D1FB681A687B6918331B0124
:1016F000134404331B68FA68116843F480727B69F1
:1017000018331B010B4404331A607B6807331B78C2
:101710001A067B6806331B781B041A437B68053363
:101720001B781B0213437A68043212781046FA6859
:10173000116843EA00027B691B010B4403F5C67381
:101740001A607B6803331B781A067B6802331B78A8
:101750001B041A437B6801331B781B0213437A680E
:1017600012781046FA68116843EA00027B691B018F
:101770000B4403F5C4731A60FB681A687B6918335D
:101780001B0113441B68FA68116843F001027B696E
:1017900018331B010B441A6000230EE0FB685B6AE0
:1017A00043F40012FB685A62012306E0FB685B6A9F
:1017B00043F48022FB685A62012318462037BD4655
:1017C00080BD00BF8078000880B586B000AFF860AB
:1017D000B9607A603B60FB6893F82030FB75BB68AA
:1017E000002B07D0BB68012B04D040F2CD518C48B0
:1017F00004F07FF9FB7D012B03D0FB7D022B40F031
:101800000381BB68002B0ED1FB681B68DB6803F00B
:101810000303002B16D1FB685B6A43F40012FB68DC
:101820005A620123F7E0FB681B681B6903F003039E
:10183000002B07D1FB685B6A43F40012FB685A6215
:101840000123E8E0FB681A68BB681B331B011344E3
:101850001B6803F004027B689A607B689B68002B1E
:101860000CD1FB681A68BB681B331B0113441B684F
:101870005B0DC3F30A027B681A600BE0FB681A6811
:10188000BB681B331B0113441B68DB0823F0604259
:101890007B685A60FB681A68BB681B331B011344E2
:1018A0001B6803F002027B68DA60FB681A68BB6899
:1018B0001B331B01134404331B6803F00803002B84
:1018C00003D07B6808221A610BE0FB681A68BB68CA
:1018D0001B331B01134404331B6803F00F027B68A6
:1018E0001A61FB681A68BB681B331B01134404337D
:1018F0001B681B0ADAB27B689A61FB681A68BB68CE
:101900001B331B01134404331B681B0C9AB27B6806
:101910005A61FB681A68BB681B01134403F5DC734A
:101920001B68DAB23B681A70FB681A68BB681B0157
:10193000134403F5DC731B681A0A3B680133D2B207
:101940001A70FB681A68BB681B01134403F5DC734B
:101950001B681A0C3B680233D2B21A70FB681A6813
:10196000BB681B01134403F5DC731B681A0E3B684C
:101970000333D2B21A70FB681A68BB681B011344A8
:1019800003F5DE731A683B680433D2B21A70FB6841
:101990001A68BB681B01134403F5DE731B681A0A3F
:1019A0003B680533D2B21A70FB681A68BB681B012A
:1019B000134403F5DE731B681A0C3B680633D2B27E
:1019C0001A70FB681A68BB681B01134403F5DE73C9
:1019D0001B681A0E3B680733D2B21A70BB68002B23
:1019E00008D1FB681B68DA68FB681B6842F02002BC
:1019F000DA6007E0FB681B681A69FB681B6842F045
:101A000020021A61002306E0FB685B6A43F480222F
:101A1000FB685A62012318461837BD4680BD00BFD7
:101A20008078000880B584B000AF786039607B684A
:101A300093F82030FB733B68114A934204D940F27B
:101A40006661104804F055F8FB7B012B02D0FB7B4C
:101A5000022B09D17B681B6859697B681B683A684F
:101A60000A435A61002306E07B685B6A43F48022E4
:101A70007B685A62012318461037BD4680BD00BFFF
:101A80007F8F03008078000880B58AB000AF78604F
:101A900000237B627B681B685B693B627B681B6819
:101AA0005B68FB617B681B689B68BB617B681B682C
:101AB000DB687B617B681B681B693B617B681B681B
:101AC0009B69FB603B6A03F00103002B7CD0BB6980
:101AD00003F00103002B23D07B681B6801229A606E
:101AE000BB6903F00203002B03D0786800F083F990
:101AF00016E0BB6903F00403002B04D07B6A43F4B7
:101B000000637B620CE0BB6903F00803002B04D088
:101B10007B6A43F480537B6202E0786800F086F9C8
:101B2000BB6903F48073002B24D07B681B684FF4DF
:101B300080729A60BB6903F40073002B03D078684D
:101B400000F062F916E0BB6903F48063002B04D057
:101B50007B6A43F400537B620CE0BB6903F40063CF
:101B6000002B04D07B6A43F480437B6202E07868F8
:101B700000F065F9BB6903F48033002B24D07B6847
:101B80001B684FF480329A60BB6903F40033002B6A
:101B900003D0786800F041F916E0BB6903F48023B4
:101BA000002B04D07B6A43F400437B620CE0BB69EA
:101BB00003F40023002B04D07B6A43F480337B6260
:101BC00002E0786800F044F93B6A03F00803002B58
:101BD0000CD07B6903F01003002B07D07B6A43F421
:101BE00000737B627B681B681022DA603B6A03F03B
:101BF0000403002B0BD07B6903F00803002B06D0F5
:101C00007B681B680822DA60786800F02AF93B6A72
:101C100003F00203002B09D07B681B68DB6803F02C
:101C20000303002B02D0786804F0A0FA3B6A03F0AB
:101C30004003002B0CD03B6903F01003002B07D0AE
:101C40007B6A43F480637B627B681B6810221A61A5
:101C50003B6A03F02003002B0BD03B6903F0080321
:101C6000002B06D07B681B6808221A61786800F098
:101C70000AF93B6A03F01003002B09D07B681B684C
:101C80001B6903F00303002B02D0786800F0F2F820
:101C90003B6A03F40033002B0BD0FB6903F0100305
:101CA000002B06D07B681B6810225A60786800F011
:101CB000F3F83B6A03F48033002B0BD0FB6903F08D
:101CC0000803002B06D07B681B6808225A607868DE
:101CD00000F0EBF83B6A03F40043002B7BD0FB6978
:101CE00003F00403002B72D03B6A03F48073002BD3
:101CF00008D0FB6803F00103002B03D07B6A43F09C
:101D000001037B623B6A03F40073002B08D0FB687D
:101D100003F00203002B03D07B6A43F002037B62D3
:101D20003B6A03F48063002B08D0FB6803F00403D4
:101D3000002B03D07B6A43F004037B623B6A03F40D
:101D40000063002B43D0FB6803F07003002B3ED0F0
:101D5000FB6803F07003602B2BD0602B2ED8502B28
:101D600022D0502B2AD8402B19D0402B26D8302BEC
:101D700010D0302B22D8102B02D0202B05D01DE004
:101D80007B6A43F008037B6219E07B6A43F010032F
:101D90007B6214E07B6A43F020037B620FE07B6A86
:101DA00043F040037B620AE07B6A43F080037B627E
:101DB00005E07B6A43F480737B6200E000BF7B68D0
:101DC0001B689A697B681B6822F070029A617B68C5
:101DD0001B6804225A607B6A002B08D07B685A6A11
:101DE0007B6A1A437B685A62786800F067F800BF24
:101DF0002837BD4680BD80B483B000AF786000BF97
:101E00000C37BD4680BC704780B483B000AF7860AB
:101E100000BF0C37BD4680BC704780B483B000AFB4
:101E2000786000BF0C37BD4680BC704780B483B07B
:101E300000AF786000BF0C37BD4680BC704780B4EF
:101E400083B000AF786000BF0C37BD4680BC7047E0
:101E500080B483B000AF786000BF0C37BD4680BC53
:101E6000704780B483B000AF786000BF0C37BD46C8
:101E700080BC704780B483B000AF786000BF0C377F
:101E8000BD4680BC704780B483B000AF786000BFAF
:101E90000C37BD4680BC704780B483B000AF78601B
:101EA00000BF0C37BD4680BC704780B483B000AF24
:101EB000786000BF0C37BD4680BC704780B483B0EB
:101EC00000AF786000BF0C37BD4680BC7047000093
:101ED00080B500AF084B1B68074A43F0100313603E
:101EE000032001F0D7FC0F2000F008F803F00CFEEF
:101EF0000023184680BD00BF0020024080B582B09C
:101F000000AF7860124B1A68124B1B7819464FF4D9
:101F10007A73B3FBF1F3B2FBF3F3184601F01EFD45
:101F20000346002B01D001230EE07B680F2B0AD85B
:101F3000002279684FF0FF3001F0CCFC064A7B6844
:101F40001360002300E0012318460837BD4680BD1A
:101F500000000020080000200400002080B400AF32
:101F6000054B1B781A46054B1B681344034A136044
:101F700000BFBD4680BC704708000020280000203C
:101F800080B400AF024B1B681846BD4680BC70474A
:101F90002800002080B586B000AF78607B68002BF9
:101FA00001D101235AE37B681B68002B1CD07B689E
:101FB0001B6803F00103002B16D17B681B6803F03C
:101FC0000203002B10D17B681B6803F00803002B71
:101FD0000AD17B681B6803F00403002B04D140F294
:101FE00065118F4803F085FD7B681B6803F00103D2
:101FF000002B00F09A807B685B68002B0ED07B681A
:102000005B68B3F5803F09D07B685B68B3F5A02FB0
:1020100004D040F26B11824803F06BFD814B5B688A
:1020200003F00C03042B0CD07E4B5B6803F00C0315
:10203000082B12D17B4B5B6803F48033B3F5803FF0
:102040000BD1784B1B6803F40033002B6CD07B68FA
:102050005B68002B68D1012300E37B685B68B3F504
:10206000803F06D16F4B1B686E4A43F48033136088
:102070002EE07B685B68002B0CD16A4B1B68694AB9
:1020800023F480331360674B1B68664A23F4802374
:1020900013601DE07B685B68B3F5A02F0CD1614B2A
:1020A0001B68604A43F4802313605E4B1B685D4AE3
:1020B00043F4803313600BE05A4B1B68594A23F4F6
:1020C00080331360574B1B68564A23F480231360F8
:1020D0007B685B68002B13D0FFF752FF386108E084
:1020E000FFF74EFF02463B69D31A642B01D9032345
:1020F000B4E24C4B1B6803F40033002BF0D014E027
:10210000FFF73EFF386108E0FFF73AFF02463B6900
:10211000D31A642B01D90323A0E2424B1B6803F4BA
:102120000033002BF0D100E000BF7B681B6803F098
:102130000203002B00F080807B681B69002B08D015
:102140007B681B69012B04D040F29F11344803F0D7
:10215000D0FC7B685B691F2B04D94FF4D0713048E9
:1021600003F0C7FC2F4B5B6803F00C03002B0BD074
:102170002C4B5B6803F00C03082B1CD1294B5B68CC
:1021800003F48033002B16D1264B1B6803F00203A7
:10219000002B05D07B681B69012B01D001235DE278
:1021A000204B1B6823F0F8027B685B69DB001D494C
:1021B00013430B6040E07B681B69002B20D01A4B57
:1021C00001221A60FFF7DCFE386108E0FFF7D8FE55
:1021D00002463B69D31A022B01D903233EE2114B7D
:1021E0001B6803F00203002BF0D00E4B1B6823F09A
:1021F000F8027B685B69DB000A4913430B601BE054
:10220000094B00221A60FFF7BBFE38610EE0FFF7B2
:10221000B7FE02463B69D31A022B07D903231DE2FE
:10222000C478000800100240000042427D4B1B6849
:1022300003F00203002BEAD17B681B6803F008035C
:10224000002B40D07B689B69002B08D07B689B6982
:10225000012B04D04FF4F071734803F04AFC7B6803
:102260009B69002B19D0714B01221A60FFF788FE81
:10227000386108E0FFF784FE02463B69D31A022B5F
:1022800001D90323EAE1674B5B6A03F00203002BE9
:10229000F0D0012000F002FC15E0644B00221A602F
:1022A000FFF76EFE386108E0FFF76AFE02463B6901
:1022B000D31A022B01D90323D0E15A4B5B6A03F0F6
:1022C0000203002BF0D17B681B6803F00403002B92
:1022D00000F0BF800023FB757B68DB68002B0CD00F
:1022E0007B68DB68012B08D07B68DB68052B04D09A
:1022F00040F20F214C4803F0FCFB4A4BDB6903F032
:102300008053002B0DD1474BDB69464A43F0805385
:10231000D361444BDB6903F08053BB60BB6801238E
:10232000FB75434B1B6803F48073002B18D1404BA3
:102330001B683F4A43F480731360FFF721FE386146
:1023400008E0FFF71DFE02463B69D31A642B01D952
:10235000032383E1364B1B6803F48073002BF0D01A
:102360007B68DB68012B06D12E4B1B6A2D4A43F09C
:10237000010313622DE07B68DB68002B0CD1294B35
:102380001B6A284A23F001031362264B1B6A254A65
:1023900023F0040313621CE07B68DB68052B0CD17F
:1023A000204B1B6A1F4A43F0040313621D4B1B6A38
:1023B0001C4A43F0010313620BE01A4B1B6A194AD3
:1023C00023F001031362174B1B6A164A23F0040320
:1023D00013627B68DB68002B15D0FFF7D1FD3861F5
:1023E0000AE0FFF7CDFD02463B69D31A41F288327D
:1023F000934201D9032331E10A4B1B6A03F0020324
:10240000002BEED01CE0FFF7BBFD386112E0FFF7B8
:10241000B7FD02463B69D31A41F28832934209D98B
:1024200003231BE100100240C478000880044242EC
:10243000007000408B4B1B6A03F00203002BE6D1B7
:10244000FB7D012B05D1874BDB69864A23F0805346
:10245000D3617B68DB69002B0CD07B68DB69012BC7
:1024600008D07B68DB69022B04D040F2AD217E48A6
:1024700003F03FFB7B68DB69002B00F0EE80794BBB
:102480005B6803F00C03082B00F0CE807B68DB69EF
:10249000022B40F0B2807B681B6A002B09D07B685E
:1024A0001B6AB3F5803F04D040F2B6216E4803F0BA
:1024B00020FB7B685B6A002B4AD07B685B6AB3F5C4
:1024C000802F45D07B685B6AB3F5002F40D07B68D6
:1024D0005B6AB3F5402F3BD07B685B6AB3F5801F26
:1024E00036D07B685B6AB3F5A01F31D07B685B6A2E
:1024F000B3F5C01F2CD07B685B6AB3F5E01F27D013
:102500007B685B6AB3F5001F22D07B685B6AB3F51A
:10251000101F1DD07B685B6AB3F5201F18D07B6845
:102520005B6AB3F5301F13D07B685B6AB3F5401F5D
:102530000ED07B685B6AB3F5501F09D07B685B6A7D
:10254000B3F5601F04D040F2B721474803F0D1FA39
:10255000464B00221A60FFF713FD386108E0FFF7D1
:102560000FFD02463B69D31A022B01D9032375E004
:102570003C4B1B6803F00073002BF0D17B681B6A97
:10258000B3F5803F16D17B689B68002B09D07B6830
:102590009B68B3F5003F04D040F2CD21324803F0F0
:1025A000A8FA304B5B6823F400327B689B682D49A6
:1025B00013434B602B4B5B6823F474127B68196ADE
:1025C0007B685B6A0B43274913434B60274B01220F
:1025D0001A60FFF7D5FC386108E0FFF7D1FC02462E
:1025E0003B69D31A022B01D9032337E01D4B1B682B
:1025F00003F00073002BF0D02FE01C4B00221A6078
:10260000FFF7BEFC386108E0FFF7BAFC02463B6901
:10261000D31A022B01D9032320E0124B1B6803F0CD
:102620000073002BF0D118E07B68DB69012B01D12E
:10263000012313E00B4B5B68FB60FB6803F4803203
:102640007B681B6A9A4206D1FB6803F470127B68B0
:102650005B6A9A4201D0012300E000231846183734
:10266000BD4680BD00100240C478000860004242B0
:1026700080B584B000AF786039607B68002B01D1F1
:10268000012376E17B681B6803F00103002B16D160
:102690007B681B6803F00203002B10D17B681B686A
:1026A00003F00403002B0AD17B681B6803F00803C6
:1026B000002B04D140F23631744803F01AFA3B681B
:1026C000002B0AD03B68012B07D03B68022B04D0BB
:1026D00040F237316D4803F00CFA6D4B1B6803F084
:1026E00007033A689A4210D9694B1B6823F0070226
:1026F00067493B6813430B60654B1B6803F0070396
:102700003A689A4201D0012333E17B681B6803F0E9
:102710000203002B49D07B681B6803F00403002BE5
:1027200005D05C4B5B685B4A43F4E06353607B68B5
:102730001B6803F00803002B05D0564B5B68554A15
:1027400043F4605353607B689B68002B24D07B6804
:102750009B68802B20D07B689B68902B1CD07B686B
:102760009B68A02B18D07B689B68B02B14D07B682B
:102770009B68C02B10D07B689B68D02B0CD07B68EB
:102780009B68E02B08D07B689B68F02B04D040F25C
:102790005D313E4803F0ADF93E4B5B6823F0F0023B
:1027A0007B689B683B4913434B607B681B6803F065
:1027B0000103002B51D07B685B68002B0CD07B6839
:1027C0005B68012B08D07B685B68022B04D04FF458
:1027D00059712E4803F08DF97B685B68012B07D196
:1027E0002C4B1B6803F40033002B15D10123C0E0F0
:1027F0007B685B68022B07D1264B1B6803F00073D4
:10280000002B09D10123B4E0224B1B6803F0020323
:10281000002B01D10123ACE01E4B5B6823F00302C7
:102820007B685B681B4913434B60FFF7A9FBF860AB
:102830000AE0FFF7A5FB0246FB68D31A41F2883293
:10284000934201D9032394E0124B5B6803F00C021E
:102850007B685B689B009A42EBD10D4B1B6803F0D1
:1028600007033A689A4217D2094B1B6823F0070204
:1028700007493B6813430B60054B1B6803F00703D4
:102880003A689A4208D0012373E000BFC478000878
:1028900000200240001002407B681B6803F0040324
:1028A000002B25D07B68DB68002B18D07B68DB68A9
:1028B000B3F5806F13D07B68DB68B3F5A06F0ED0E3
:1028C0007B68DB68B3F5C06F09D07B68DB68B3F564
:1028D000E06F04D040F2A231284803F00AF9284BF7
:1028E0005B6823F4E0627B68DB68254913434B6037
:1028F0007B681B6803F00803002B26D07B681B69EC
:10290000002B18D07B681B69B3F5806F13D07B68F0
:102910001B69B3F5A06F0ED07B681B69B3F5C06F60
:1029200009D07B681B69B3F5E06F04D040F2A93190
:10293000124803F0DEF8124B5B6823F460527B68A8
:102940001B69DB000E4913434B6000F021F802467F
:102950000B4B5B681B0903F00F030A49CB5C22FA9F
:1029600003F3094A1360094B1B681846FFF7C6FAC0
:10297000002318461037BD4680BD00BFC47800084C
:1029800000100240A87A0008000000200400002087
:1029900080B487B000AF0023FB600023BB6000233E
:1029A0007B6100237B6000233B611E4B5B68FB6007
:1029B000FB6803F00C03042B02D0082B03D027E0A4
:1029C000194B3B6127E0FB689B0C03F00F03174A90
:1029D000D35C7B60FB6803F48033002B10D0114B79
:1029E0005B685B0C03F00103114AD35CBB607B683E
:1029F0000D4A03FB02F2BB68B2FBF3F37B6104E018
:102A00007B680C4A02FB03F37B617B693B6102E05C
:102A1000054B3B6100BF3B6918461C37BD4680BC77
:102A2000704700BF0010024000127A00C07A000810
:102A3000D07A000800093D0080B400AF024B1B684B
:102A40001846BD4680BC70470000002080B500AF2E
:102A5000FFF7F2FF0246054B5B681B0A03F0070312
:102A60000349CB5C22FA03F3184680BD00100240F4
:102A7000B87A000880B500AFFFF7DEFF0246054BCD
:102A80005B68DB0A03F007030349CB5C22FA03F31C
:102A9000184680BD00100240B87A000880B485B0A6
:102AA00000AF78600A4B1B680A4AA2FB03235B0A4B
:102AB0007A6802FB03F3FB6000BFFB685A1EFA60F2
:102AC000002BF9D100BF00BF1437BD4680BC704752
:102AD00000000020D34D621080B58AB000AF78604E
:102AE000396000237B6200233B627B68964A9342F5
:102AF00013D07B68954A93420FD07B68944A9342E7
:102B00000BD07B68934A934207D07B68924A9342EA
:102B100003D0BD21914802F0ECFF3B681B689BB2DB
:102B2000002B04D03B681B68B3F5803F03D3BE2164
:102B30008A4802F0DEFF3B685B68002B00F01D82D4
:102B40003B685B68012B00F018823B685B68112BC7
:102B500000F013823B685B68022B00F00E823B683A
:102B60005B68122B00F009823B685B687C4A9342E9
:102B700000F003823B685B687A4A934200F0FD8173
:102B80003B685B68784A934200F0F7813B685B687A
:102B9000764A934200F0F1813B685B68744A934245
:102BA00000F0EB813B685B68724A934200F0E5817C
:102BB0003B685B68032B00F0E081BF21674802F0AF
:102BC00098FFDAE101227B6A02FA03F3FB613B68BA
:102BD0001B68FA691340BB61BA69FB699A4240F00D
:102BE000C9817B68584A934213D07B68574A934205
:102BF0000FD07B68564A93420BD07B68554A93426C
:102C000007D07B68544A934203D0CD21534802F049
:102C100070FF3B685B68574A934200F0C280554A98
:102C2000934200F2E880504A934200F0BA804E4A44
:102C3000934200F2E0804E4A934200F0B2804C4A48
:102C4000934200F2D880474A934200F0AA80454A56
:102C5000934200F2D080454A934200F0A280434A5A
:102C6000934200F2C880122B2CD8122B00F2C380A2
:102C700001A252F823F000BFA32D0008CD2C0008BC
:102C80001F2D0008F12D0008F72D0008F72D000872
:102C9000F72D0008F72D0008F72D0008F72D000884
:102CA000F72D0008F72D0008F72D0008F72D000874
:102CB000F72D0008F72D0008F72D0008F52C000867
:102CC000792D0008264A93426BD094E03B68DB687C
:102CD000022B0BD03B68DB68012B07D03B68DB681D
:102CE000032B03D0D5211D4802F003FF3B68DB68AE
:102CF0003B6281E03B68DB68022B0BD03B68DB6802
:102D0000012B07D03B68DB68032B03D0DC21134881
:102D100002F0EFFE3B68DB6804333B626CE03B682B
:102D2000DB68022B0BD03B68DB68012B07D03B68CC
:102D3000DB68032B03D0E321084802F0DAFE3B688E
:102D4000DB6808333B6257E000080140000C01409B
:102D500000100140001401400018014008790008EB
:102D600000001110000021100000311000001210AE
:102D700000002210000032103B68DB68022B0BD0F1
:102D80003B68DB68012B07D03B68DB68032B03D073
:102D9000EA21804802F0ADFE3B68DB680C333B6201
:102DA0002AE03B689B68002B0BD03B689B68012B9B
:102DB00007D03B689B68022B03D0F721754802F0CF
:102DC00098FE3B689B68002B02D104233B6213E012
:102DD0003B689B68012B05D108233B627B68FA693D
:102DE0001A6109E008233B627B68FA695A6103E0D3
:102DF00000233B6200E000BFBB69FF2B01D87B686A
:102E000001E07B6804337B61BB69FF2B02D87B6ADE
:102E10009B0002E07B6A083B9B003B617B691A6870
:102E20000F213B6901FA03F3DB431A40396A3B691E
:102E300001FA03F31A437B691A603B685B6803F08D
:102E40008053002B00F09680534B9B69524A43F00D
:102E500001039361504B9B6903F00103BB60BB68A6
:102E60004E4A7B6A9B08023352F82330FB607B6A30
:102E700003F003039B000F2202FA03F3DB43FA681B
:102E80001340FB607B68464A934213D07B68454AF7
:102E900093420DD07B68444A934207D07B68434AF3
:102EA000934201D1032306E0042304E0022302E05D
:102EB000012300E000237A6A02F0030292009340AB
:102EC000FA681343FB6035497B6A9B080233FA6852
:102ED00041F823203B685B6803F48013002B06D085
:102EE000334B9A683249BB6913438B6006E0304B21
:102EF0009A68BB69DB432E4913408B603B685B6873
:102F000003F40013002B06D0294BDA682849BB696B
:102F10001343CB6006E0264BDA68BB69DB432449E8
:102F20001340CB603B685B6803F40033002B06D092
:102F30001F4B5A681E49BB6913434B6006E01C4B8C
:102F40005A68BB69DB431A4913404B603B685B68B6
:102F500003F48033002B06D0154B1A681449BB6963
:102F600013430B6006E0124B1A68BB69DB43104940
:102F700013400B607B6A01337B623B681A687B6A93
:102F800022FA03F3002B7FF41DAE00BF00BF2837E9
:102F9000BD4680BD087900080010024000000140D5
:102FA00000080140000C01400010014000140140E5
:102FB0000004014080B582B000AF78600B467B8092
:102FC00013467B707B88002B04D14FF4EA710E48C6
:102FD00002F08FFD7B78002B07D07B78012B04D08B
:102FE00040F2D511084802F084FD7B78002B03D015
:102FF0007A887B681A6103E07B881A047B681A610F
:1030000000BF0837BD4680BD0879000880B584B090
:1030100000AF78600B467B807B88002B04D14FF497
:10302000F6710A4802F065FD7B68DB68FB607A8810
:10303000FB6813401A04FB68D9437B880B401A4392
:103040007B681A6100BF1037BD4680BD0879000853
:1030500080B584B000AF78600023FB607B68002BF4
:1030600001D10123DAE07B681B686E4A934221D0CC
:103070007B681B686C4A93421CD07B681B686B4A58
:10308000934217D07B681B68694A934212D07B68D1
:103090001B68684A93420DD07B681B68664A93425E
:1030A00008D07B681B68654A934203D09921644825
:1030B00002F01FFD7B685B68002B0CD07B685B68AF
:1030C000102B08D07B685B68B3F5804F03D09A2142
:1030D0005B4802F00EFD7B689B68402B07D07B6845
:1030E0009B68002B03D09B21554802F002FD7B68B2
:1030F000DB68802B07D07B68DB68002B03D09C212A
:103100004F4802F0F6FC7B681B69002B0DD07B68F2
:103110001B69B3F5807F08D07B681B69B3F5007F1E
:1031200003D09D21464802F0E4FC7B685B69002BDC
:103130000DD07B685B69B3F5806F08D07B685B69F5
:10314000B3F5006F03D09E213D4802F0D2FC7B68AE
:103150009B69002B07D07B689B69202B03D09F21A4
:10316000374802F0C6FC7B68DB69002B12D07B6815
:10317000DB69B3F5805F0DD07B68DB69B3F5005F79
:1031800008D07B68DB69B3F5405F03D0A0212C48F1
:1031900002F0AFFC7B681B681A462A4B13442A4A8C
:1031A000A2FB03231B099A007B681A647B68274AE9
:1031B000DA637B68022283F821207B681B681B6826
:1031C000FB60FB6823F47F5323F03003FB607B68D4
:1031D0005A687B689B681A437B68DB681A437B6884
:1031E0001B691A437B685B691A437B689B691A43B6
:1031F0007B68DB691343FA681343FB607B681B68D9
:10320000FA681A607B6800229A637B68012283F85F
:1032100021207B68002283F82020002318461037E5
:10322000BD4680BD080002401C0002403000024044
:1032300044000240580002406C00024080000240FE
:103240004C790008F8FFFDBFCDCCCCCC000002408B
:1032500080B586B000AFF860B9607A603B6000234B
:10326000FB753B68002B03D03B68B3F5803F04D36C
:103270004FF4B7712C4802F03CFCFB6893F8203007
:10328000012B01D102234BE0FB68012283F82020AF
:10329000FB6893F82130DBB2012B3AD1FB680222A4
:1032A00083F82120FB6800229A63FB681B681A6878
:1032B000FB681B6822F001021A603B687A68B968F3
:1032C000F86800F0EDF9FB68DB6A002B08D0FB68BA
:1032D0001B681A68FB681B6842F00E021A600FE058
:1032E000FB681B681A68FB681B6822F004021A60FE
:1032F000FB681B681A68FB681B6842F00A021A60C8
:10330000FB681B681A68FB681B6842F001021A60C0
:1033100005E0FB68002283F820200223FB75FB7D7B
:1033200018461837BD4680BD4C79000880B485B07A
:1033300000AF78600023FB737B6893F82130DBB229
:10334000022B08D07B6804229A637B68002283F8F2
:103350002020012320E07B681B681A687B681B68BB
:1033600022F00E021A607B681B681A687B681B6873
:1033700022F001021A607B681A6C7B68DB6B01210A
:1033800001FA02F25A607B68012283F821207B68EF
:10339000002283F82020FB7B18461437BD4680BCF2
:1033A0007047000080B584B000AF78600023FB73E5
:1033B0007B6893F82130DBB2022B05D07B680422B6
:1033C0009A630123FB7351E07B681B681A687B6872
:1033D0001B6822F00E021A607B681B681A687B6803
:1033E0001B6822F001021A607B681B68224A934224
:1033F00029D07B681B68214A934222D07B681B68D6
:103400001F4A93421AD07B681B681E4A934212D00F
:103410007B681B681C4A93420AD07B681B681B4A66
:10342000934202D14FF480130EE04FF080730BE013
:103430004FF4803308E04FF4805305E04FF480737D
:1034400002E0102300E00123114A53607B6801224F
:1034500083F821207B68002283F820207B685B6B47
:10346000002B03D07B685B6B78689847FB7B184622
:103470001037BD4680BD00BF080002401C0002405E
:103480003000024044000240580002406C000240FC
:103490000000024080B584B000AF78607B68DB6BD1
:1034A0001B68FB607B681B681B68BB607B681B6CD0
:1034B00004229A40FB681340002B4FD0BB6803F0F6
:1034C0000403002B4AD07B681B681B6803F02003B1
:1034D000002B07D17B681B681A687B681B6822F089
:1034E00004021A607B681B68664A934229D07B6895
:1034F0001B68654A934222D07B681B68634A9342EB
:103500001AD07B681B68624A934212D07B681B68A2
:10351000604A93420AD07B681B685F4A934202D19B
:103520004FF480030EE04FF080630BE04FF48023F4
:1035300008E04FF4804305E04FF4806302E040234D
:1035400000E00423554A53607B68DB6A002B00F0DF
:1035500094807B68DB6A786898478EE07B681B6C98
:1035600002229A40FB681340002B56D0BB6803F040
:103570000203002B51D07B681B681B6803F02003FB
:10358000002B0BD17B681B681A687B681B6822F0D4
:103590000A021A607B68012283F821207B681B687D
:1035A000384A934229D07B681B68374A934222D01D
:1035B0007B681B68354A93421AD07B681B68344A83
:1035C000934212D07B681B68324A93420AD07B68D0
:1035D0001B68314A934202D14FF400130EE04FF0C2
:1035E00000730BE04FF4003308E04FF4005305E0A4
:1035F0004FF4007302E0202300E00223274A5360C7
:103600007B68002283F820207B689B6A002B34D0E3
:103610007B689B6A786898472FE07B681B6C082260
:103620009A40FB681340002B28D0BB6803F00803C6
:10363000002B23D07B681B681A687B681B6822F00C
:103640000E021A607B681A6C7B68DB6B012101FA41
:1036500002F25A607B6801229A637B68012283F838
:1036600021207B68002283F820207B681B6B002BC5
:1036700004D07B681B6B7868984700BF00BF103789
:10368000BD4680BD080002401C00024030000240E0
:1036900044000240580002406C000240000002401A
:1036A00080B485B000AFF860B9607A603B60FB68B9
:1036B0001A6CFB68DB6B012101FA02F25A60FB68AD
:1036C0001B683A685A60FB685B68102B08D1FB687E
:1036D0001B687A689A60FB681B68BA68DA6007E062
:1036E000FB681B68BA689A60FB681B687A68DA60D6
:1036F00000BF1437BD4680BC7047000080B485B061
:1037000000AF78607B6803F00703FB600C4BDB685D
:10371000BB60BA684FF6FF031340BB60FB681A0238
:10372000BB68134343F0BF6343F40033BB60044AF8
:10373000BB68D36000BF1437BD4680BC704700BF74
:1037400000ED00E080B400AF044BDB681B0A03F01F
:1037500007031846BD4680BC704700BF00ED00E07F
:1037600080B483B000AF0346FB7197F90730002B9C
:103770000BDBFB7903F01F02064997F907305B0961
:10378000012000FA02F241F8232000BF0C37BD46A9
:1037900080BC704700E100E080B483B000AF034616
:1037A0003960FB7197F90730002B0ADB3B68DAB20E
:1037B0000C4997F907301201D2B20B4483F8002369
:1037C0000AE03B68DAB20849FB7903F00F03043BD7
:1037D0001201D2B20B441A7600BF0C37BD4680BC32
:1037E000704700BF00E100E000ED00E080B489B068
:1037F00000AFF860B9607A60FB6803F00703FB6113
:10380000FB69C3F10703042B28BF0423BB61FB69D9
:103810000433062B02D9FB69033B00E000237B61E4
:103820004FF0FF32BB6902FA03F3DA43BB681A4078
:103830007B699A404FF0FF317B6901FA03F3D9436A
:103840007B680B40134318462437BD4680BC704745
:1038500080B582B000AF78607B68013BB3F1807FB8
:1038600001D301230FE00A4A7B68013B53600F211B
:103870004FF0FF30FFF790FF054B00229A60044B9A
:1038800007221A60002318460837BD4680BD00BFD6
:1038900010E000E080B582B000AF78607B68072B55
:1038A0000FD07B68062B0CD07B68052B09D07B687A
:1038B000042B06D07B68032B03D09121044802F02F
:1038C00018F97868FFF71AFF00BF0837BD4680BDBA
:1038D0009079000880B586B000AF0346B9607A6081
:1038E000FB7300237B617B680F2B03D9A9210E4852
:1038F00002F0FFF8BB680F2B03D9AA210A4802F097
:10390000F8F8FFF71FFF78617A68B9687869FFF700
:103910006DFF024697F90F3011461846FFF73CFF3E
:1039200000BF1837BD4680BD9079000880B582B0D1
:1039300000AF0346FB7197F90730002B03DABD2176
:10394000054802F0D6F897F907301846FFF708FF48
:1039500000BF0837BD4680BD9079000880B582B0B1
:1039600000AF78607868FFF773FF034618460837A2
:10397000BD4680BD80B582B000AF78607B68002B0B
:1039800001D10123A1E07B681B68524A934213D006
:103990007B681B68B3F1804F0ED07B681B684E4A72
:1039A000934209D07B681B684C4A934204D040F292
:1039B00013114B4802F09DF87B689B68002B14D0D4
:1039C0007B689B68102B10D07B689B68202B0CD0E9
:1039D0007B689B68402B08D07B689B68602B04D079
:1039E0004FF48A713E4802F084F87B681B69002B13
:1039F0000ED07B681B69B3F5807F09D07B681B699B
:103A0000B3F5007F04D040F21511354802F071F88B
:103A10007B68DB68002B04D07B68DB68B3F5803FF4
:103A200004D34FF48B712E4802F063F87B689B69D6
:103A3000002B08D07B689B69802B04D040F21711C3
:103A4000274802F056F87B6893F83D30DBB2002B34
:103A500006D17B68002283F83C20786802F04AF99E
:103A60007B68022283F83D207B681A687B680433F8
:103A70001946104600F068FC7B68012283F8462056
:103A80007B68012283F83E207B68012283F83F2077
:103A90007B68012283F840207B68012283F8412063
:103AA0007B68012283F842207B68012283F843204F
:103AB0007B68012283F844207B68012283F845203B
:103AC0007B68012283F83D20002318460837BD4655
:103AD00080BD00BF002C01400004004000080040F1
:103AE000D879000880B584B000AF78607B681B6827
:103AF0002E4A934213D07B681B68B3F1804F0ED0DF
:103B00007B681B682A4A934209D07B681B68294A54
:103B1000934204D04FF4E871274801F0EAFF7B6834
:103B200093F83D30DBB2012B01D001233AE07B68F2
:103B3000022283F83D207B681B68DA687B681B687B
:103B400042F00102DA607B681B68184A93420ED08B
:103B50007B681B68B3F1804F09D07B681B68144AEF
:103B6000934204D07B681B68124A934211D17B6850
:103B70001B689B6803F00703FB60FB68062B10D0F3
:103B80007B681B681A687B681B6842F001021A6038
:103B900007E07B681B681A687B681B6842F00102BB
:103BA0001A60002318461037BD4680BD002C014026
:103BB0000004004000080040D879000880B584B0B7
:103BC00000AF78607B681B68DB68FB607B681B6804
:103BD0001B69BB60BB6803F00203002B20D0FB68AD
:103BE00003F00203002B1BD07B681B686FF00202FE
:103BF0001A617B6801221A777B681B689B6903F056
:103C00000303002B03D0786800F083FB05E078689D
:103C100000F076FB786800F085FB7B6800221A775D
:103C2000BB6803F00403002B20D0FB6803F00403FF
:103C3000002B1BD07B681B686FF004021A617B6845
:103C400002221A777B681B689B6903F44073002B80
:103C500003D0786800F05DFB05E0786800F050FB69
:103C6000786800F05FFB7B6800221A77BB6803F07E
:103C70000803002B20D0FB6803F00803002B1BD0A7
:103C80007B681B686FF008021A617B6804221A7750
:103C90007B681B68DB6903F00303002B03D07868A3
:103CA00000F037FB05E0786800F02AFB786800F048
:103CB00039FB7B6800221A77BB6803F01003002BE6
:103CC00020D0FB6803F01003002B1BD07B681B681F
:103CD0006FF010021A617B6808221A777B681B68F4
:103CE000DB6903F44073002B03D0786800F011FB0C
:103CF00005E0786800F004FB786800F013FB7B684F
:103D000000221A77BB6803F00103002B0CD0FB687C
:103D100003F00103002B07D07B681B686FF00102E2
:103D20001A61786802F012FABB6803F08003002B76
:103D30000CD0FB6803F08003002B07D07B681B6866
:103D40006FF080021A61786800F0B5FCBB6803F080
:103D50004003002B0CD0FB6803F04003002B07D07E
:103D60007B681B686FF040021A61786800F0E3FA24
:103D7000BB6803F02003002B0CD0FB6803F020038A
:103D8000002B07D07B681B686FF020021A617868EF
:103D900000F088FC00BF1037BD4680BD80B584B000
:103DA00000AF786039600023FB737B6893F83C3088
:103DB000012B01D1022396E27B68012283F83C208B
:103DC0007B68022283F83D203B681B68B3F5805F67
:103DD00029D03B681B68702B25D03B681B68B3F566
:103DE000005F20D03B681B68402B1CD03B681B68E1
:103DF000502B18D03B681B68602B14D03B681B68A5
:103E0000002B10D03B681B68102B0CD03B681B6844
:103E1000202B08D03B681B68302B04D041F2C241F4
:103E20006B4801F066FE7B681B689B68BB60BB68E3
:103E300023F07703BB60BB6823F47F43BB607B68E0
:103E40001B68BA689A603B681B68B3F5005F00F0B6
:103E5000C780B3F5005F00F23982B3F5805F2DD0E3
:103E6000B3F5805F00F23282702B45D0702B00F2E8
:103E70002D82602B00F06781602B00F22782502B8F
:103E800000F01581502B00F22182402B00F0B08110
:103E9000402B00F21B82302B00F0F681302B00F219
:103EA0001582202B00F0F081202B00F20F82002BD6
:103EB00000F0EA81102B00F0E78107E27B681B68C5
:103EC000444A934200F005827B681B68B3F1804F3F
:103ED00000F0FF817B681B683F4A934200F0F98144
:103EE0007B681B683D4A934200F0F38141F2CE416A
:103EF000374801F0FEFDECE17B681B68354A9342D0
:103F000013D07B681B68B3F1804F0ED07B681B68B1
:103F1000314A934209D07B681B68304A934204D0EF
:103F200041F2D5412A4801F0E4FD3B689B68002B33
:103F300013D03B689B68B3F5805F0ED03B689B68ED
:103F4000B3F5005F09D03B689B68B3F5405F04D0D0
:103F500041F2D8411E4801F0CCFD3B685B68B3F5E7
:103F6000004F14D03B685B68002B10D03B685B6847
:103F7000002B0CD03B685B68022B08D03B685B6869
:103F80000A2B04D041F2D941114801F0B2FD3B683F
:103F9000DB680F2B04D941F2DA410D4801F0A9FD8D
:103FA0007B6818683B6899683B685A683B68DB68BF
:103FB00000F0AFFA7B681B689B68BB60BB6843F08E
:103FC0007703BB607B681B68BA689A6082E100BFB8
:103FD000D8790008002C014000040040000800408F
:103FE0007B681B687E4A934213D07B681B68B3F1E1
:103FF000804F0ED07B681B687A4A934209D07B6859
:104000001B68794A934204D041F2ED41774801F0B0
:1040100070FD3B689B68002B13D03B689B68B3F531
:10402000805F0ED03B689B68B3F5005F09D03B68AA
:104030009B68B3F5405F04D041F2F0416B4801F05A
:1040400058FD3B685B68B3F5004F14D03B685B6874
:10405000002B10D03B685B68002B0CD03B685B6882
:10406000022B08D03B685B680A2B04D041F2F14177
:104070005E4801F03EFD3B68DB680F2B04D941F23E
:10408000F2415A4801F035FD7B6818683B68996831
:104090003B685A683B68DB6800F03BFA7B681B684A
:1040A0009A687B681B6842F480429A6012E17B68E0
:1040B0001B684B4A934213D07B681B68B3F1804F57
:1040C0000ED07B681B68474A934209D07B681B6807
:1040D000454A934204D041F20151444801F009FDA0
:1040E0003B685B68B3F5004F14D03B685B68002BFE
:1040F00010D03B685B68002B0CD03B685B68022BE0
:1041000008D03B685B680A2B04D041F20451374861
:1041100001F0EFFC3B68DB680F2B04D941F205513D
:10412000324801F0E6FC7B6818683B6859683B68D8
:10413000DB681A4600F076F97B681B685021184648
:1041400000F0CDF9C6E07B681B68254A934213D086
:104150007B681B68B3F1804F0ED07B681B68214AD7
:10416000934209D07B681B681F4A934204D041F2F6
:1041700011511E4801F0BDFC3B685B68B3F5004F70
:1041800014D03B685B68002B10D03B685B68002B49
:104190000CD03B685B68022B08D03B685B680A2B3D
:1041A00004D041F21451114801F0A3FC3B68DB68D4
:1041B0000F2B04D941F215510C4801F09AFC7B6891
:1041C00018683B6859683B68DB681A4600F058F984
:1041D0007B681B686021184600F081F97AE000BF17
:1041E000002C01400004004000080040D87900087D
:1041F0007B681B683E4A934213D07B681B68B3F10F
:10420000804F0ED07B681B683A4A934209D07B6886
:104210001B68394A934204D041F22151374801F0DA
:1042200068FC3B685B68B3F5004F14D03B685B6883
:10423000002B10D03B685B68002B0CD03B685B68A0
:10424000022B08D03B685B680A2B04D041F2245152
:104250002A4801F04EFC3B68DB680F2B04D941F281
:104260002551264801F045FC7B6818683B68596871
:104270003B68DB681A4600F0D5F87B681B68402174
:10428000184600F02CF925E07B681B68184A934219
:1042900013D07B681B68B3F1804F0ED07B681B681E
:1042A000144A934209D07B681B68134A934204D096
:1042B00041F23451114801F01CFC7B681A683B68DC
:1042C0001B681946104600F00AF903E00123FB734E
:1042D00000E000BF7B68012283F83D207B6800225C
:1042E00083F83C20FB7B18461037BD4680BD00BFDD
:1042F000002C01400004004000080040D87900086C
:1043000080B483B000AF786000BF0C37BD4680BC7E
:10431000704780B483B000AF786000BF0C37BD46F3
:1043200080BC704780B483B000AF786000BF0C37AA
:10433000BD4680BC704780B483B000AF786000BFDA
:104340000C37BD4680BC704780B485B000AF786044
:1043500039607B681B68FB607B682F4A93420BD0F7
:104360007B68B3F1804F07D07B682C4A934203D01F
:104370007B682B4A934208D1FB6823F07003FB60F3
:104380003B685B68FA681343FB607B68224A934290
:104390000BD07B68B3F1804F07D07B681F4A9342F4
:1043A00003D07B681E4A934208D1FB6823F4407314
:1043B000FB603B68DB68FA681343FB60FB6823F033
:1043C00080023B685B691343FB607B68FA681A6094
:1043D0003B689A687B68DA623B681A687B689A6215
:1043E0007B680D4A934203D13B681A697B681A6364
:1043F0007B6801225A617B681B6903F00103002B73
:1044000005D07B681B6923F001027B681A6100BF3D
:104410001437BD4680BC7047002C014000040040AA
:104420000008004080B487B000AFF860B9607A60DF
:10443000FB681B6A7B61FB681B6A23F00102FB6857
:104440001A62FB689B693B613B6923F0F0033B61A7
:104450007B681B013A6913433B617B6923F00A03C4
:104460007B617A69BB6813437B61FB683A699A6137
:10447000FB687A691A6200BF1C37BD4680BC704772
:1044800080B487B000AFF860B9607A60FB681B6ADF
:104490007B61FB681B6A23F01002FB681A62FB68F1
:1044A0009B693B613B6923F470433B617B681B0361
:1044B0003A6913433B617B6923F0A0037B61BB68CE
:1044C0001B017A6913437B61FB683A699A61FB6857
:1044D0007A691A6200BF1C37BD4680BC704780B441
:1044E00085B000AF786039607B689B68FB60FB68D3
:1044F00023F07003FB603A68FB68134343F0070343
:10450000FB607B68FA689A6000BF1437BD4680BCC8
:10451000704780B487B000AFF860B9607A603B60E4
:10452000FB689B687B617B6923F47F437B613B680D
:104530001A027B681A43BB6813437A6913437B6191
:10454000FB687A699A6000BF1C37BD4680BC704723
:1045500080B584B000AF786039607B681B684D4AD5
:10456000934213D07B681B68B3F1804F0ED07B68F9
:104570001B68494A934209D07B681B68474A9342AB
:1045800004D040F2A971464801F0B3FA3B681B68B9
:10459000002B20D03B681B68102B1CD03B681B688D
:1045A000202B18D03B681B68302B14D03B681B684D
:1045B000402B10D03B681B68502B0CD03B681B680D
:1045C000602B08D03B681B68702B04D040F2AA71A6
:1045D000334801F08EFA3B685B68802B08D03B685B
:1045E0005B68002B04D040F2AB712D4801F081FADA
:1045F0007B6893F83C30012B01D1022346E07B68B5
:10460000012283F83C207B68022283F83D207B68EE
:104610001B685B68FB607B681B689B68BB60FB6812
:1046200023F07003FB603B681B68FA681343FB6070
:104630007B681B68FA685A607B681B68154A93425E
:104640000ED07B681B68B3F1804F09D07B681B6874
:10465000114A934204D07B681B68104A93420CD1E4
:10466000BB6823F08003BB603B685B68BA68134398
:10467000BB607B681B68BA689A607B68012283F81C
:104680003D207B68002283F83C2000231846103729
:10469000BD4680BD002C01400004004000080040E1
:1046A0001C7A000880B483B000AF786000BF0C377C
:1046B000BD4680BC704780B483B000AF786000BF57
:1046C0000C37BD4680BC704780B582B000AF7860C3
:1046D0007B68002B01D1012395E07B689B69002B4F
:1046E0002CD07B681B684A4A93420ED07B681B68BB
:1046F000484A934209D07B681B68474A934204D0DA
:104700004FF4B771454801F0F4F97B689B69002BC1
:1047100028D07B689B69B3F5807F23D07B689B6939
:10472000B3F5007F1ED07B689B69B3F5407F19D03D
:1047300040F26F11394801F0DCF913E07B681B6827
:10474000334A93420ED07B681B68324A934209D0A9
:104750007B681B68304A934204D040F273112F48A3
:1047600001F0C7F97B689B68002B09D07B689B68C8
:10477000B3F5805F04D040F27511284801F0B9F913
:104780007B6893F84130DBB2002B06D17B680022B6
:1047900083F84020786801F027FB7B68242283F8A7
:1047A00041207B681B68DA687B681B6822F4005232
:1047B000DA60786800F040FF7B681B681A697B68E4
:1047C0001B6822F490421A617B681B685A697B68F7
:1047D0001B6822F02A025A617B681B68DA687B68D2
:1047E0001B6842F40052DA607B6800225A647B68DE
:1047F000202283F841207B68202283F842207B68B6
:1048000000225A63002318460837BD4680BD00BF0A
:10481000003801400044004000480040647A00082D
:1048200080B58CB000AFF860B9601346FB80FB68C0
:1048300093F84130DBB2202B56D1BB68002B02D05D
:10484000FB88002B01D101234FE0BA68FB681A6294
:10485000FB68FA889A84FB68FA88DA84FB6800228D
:104860005A64FB68212283F84120FB689B6B214A34
:104870009A62FB689B6B204ADA62FB689B6B1F4A5B
:104880001A63FB689B6B00225A6307F10803FB6203
:10489000FB68986BFB6A1968FB681B6804331A464F
:1048A000FB88FEF7D5FCFB681B686FF040021A60BE
:1048B000FB681B681433BB61BB6953E8003F7B6135
:1048C0007B6943F08003BB62FB681B681433BA6AE0
:1048D0007A623B62396A7A6A41E80023FB61FB69CC
:1048E000002BE5D1002300E0022318463037BD46F7
:1048F00080BD00BFCF4E0008694F0008ED50000892
:1049000080B584B000AFF860B9601346FB80FB68E7
:1049100093F84230DBB2202B12D1BB68002B02D0BF
:10492000FB88002B01D101230BE0FB6800221A63F6
:10493000FB881A46B968F86800F022FC034600E0DC
:10494000022318461037BD4680BD000080B5BAB0BE
:1049500000AF78607B681B681B68C7F8E4307B6831
:104960001B68DB68C7F8E0307B681B685B69C7F8C9
:10497000DC300023C7F8D8300023C7F8D430D7F88C
:10498000E43003F00F03C7F8D830D7F8D830002B45
:104990000FD1D7F8E43003F02003002B09D0D7F86B
:1049A000E03003F02003002B03D0786800F086FD90
:1049B0005BE2D7F8D830002B00F0DE80D7F8DC308F
:1049C00003F00103002B06D1D7F8E03003F4907315
:1049D000002B00F0D180D7F8E43003F00103002B66
:1049E0000BD0D7F8E03003F48073002B05D07B6840
:1049F0005B6C43F001027B685A64D7F8E43003F043
:104A00000403002B0BD0D7F8DC3003F00103002B9C
:104A100005D07B685B6C43F002027B685A64D7F870
:104A2000E43003F00203002B0BD0D7F8DC3003F0A6
:104A30000103002B05D07B685B6C43F004027B68AC
:104A40005A64D7F8E43003F00803002B11D0D7F8EC
:104A5000E03003F02003002B05D1D7F8DC3003F061
:104A60000103002B05D07B685B6C43F008027B6878
:104A70005A647B685B6C002B00F0F281D7F8E4305D
:104A800003F02003002B08D0D7F8E03003F0200318
:104A9000002B02D0786800F011FD7B681B685B6911
:104AA00003F04003002B14BF01230023DBB2C7F83F
:104AB000D4307B685B6C03F00803002B03D1D7F87C
:104AC000D430002B4FD0786800F01BFC7B681B684B
:104AD0005B6903F04003002B41D07B681B681433F3
:104AE000C7F89C30D7F89C3053E8003FC7F898309F
:104AF000D7F8983023F04003C7F8D0307B681B68A4
:104B00001433D7F8D020C7F8A820C7F8A430D7F8B6
:104B1000A410D7F8A82041E80023C7F8A030D7F8A0
:104B2000A030002BD9D17B68DB6B002B13D07B68C6
:104B3000DB6B7E4A5A637B68DB6B1846FEF732FC00
:104B40000346002B16D07B68DB6B5B6B7A68D26BFD
:104B5000104698470EE0786800F0A5F90AE07868FA
:104B600000F0A1F906E0786800F09DF97B6800226A
:104B70005A6475E100BF73E17B681B6B012B40F049
:104B80004F81D7F8E43003F01003002B00F0488188
:104B9000D7F8E03003F01003002B00F04181002330
:104BA000BB607B681B681B68BB607B681B685B68BD
:104BB000BB60BB687B681B685B6903F04003002B2C
:104BC00000F0B6807B68DB6B1B685B68A7F8BE30C3
:104BD000B7F8BE30002B00F045817B689B8DB7F89D
:104BE000BE209A4280F03E817B68B7F8BE20DA850D
:104BF0007B68DB6B9B69202B00F088807B681B68DF
:104C00000C33C7F88830D7F8883053E8003FC7F82E
:104C10008430D7F8843023F48073C7F8B8307B68C9
:104C20001B680C33D7F8B820C7F89420C7F8903029
:104C3000D7F89010D7F8942041E80023C7F88C30BB
:104C4000D7F88C30002BD9D17B681B6814337B6775
:104C50007B6F53E8003F3B673B6F23F00103C7F8CE
:104C6000B4307B681B681433D7F8B420C7F88020B1
:104C7000FB67F96FD7F8802041E80023BB67BB6F63
:104C8000002BE1D17B681B6814333B663B6E53E815
:104C9000003FFB65FB6D23F04003C7F8B0307B6835
:104CA0001B681433D7F8B020FA66BB66B96EFA6E8B
:104CB00041E800237B667B6E002BE3D17B682022DA
:104CC00083F842207B6800221A637B681B680C33E0
:104CD000FB64FB6C53E8003FBB64BB6C23F0100328
:104CE000C7F8AC307B681B680C33D7F8AC20BA65CA
:104CF0007B65796DBA6D41E800233B653B6D002B08
:104D0000E3D17B68DB6B1846FEF710FB7B68022261
:104D10005A637B689A8D7B68DB8D9BB2D31A9BB2FA
:104D20001946786800F0C8F89CE000BFC753000837
:104D30007B689A8D7B68DB8D9BB2D31AA7F8CE3047
:104D40007B68DB8D9BB2002B00F08E80B7F8CE30F5
:104D5000002B00F089807B681B680C33BB63BB6B46
:104D600053E8003F7B637B6B23F49073C7F8C83034
:104D70007B681B680C33D7F8C8207A643B64396CB5
:104D80007A6C41E80023FB63FB6B002BE3D17B686B
:104D90001B6814337B627B6A53E8003F3B623B6ACB
:104DA00023F00103C7F8C4307B681B681433D7F8BD
:104DB000C4203A63FB62F96A3A6B41E80023BB62A4
:104DC000BB6A002BE3D17B68202283F842207B68FA
:104DD00000221A637B681B680C333B613B6953E814
:104DE000003FFB60FB6823F01003C7F8C0307B680E
:104DF0001B680C33D7F8C020FA61BB61B969FA6946
:104E000041E800237B617B69002BE3D17B680222B0
:104E10005A63B7F8CE301946786800F04DF823E0B1
:104E2000D7F8E43003F08003002B09D0D7F8E03046
:104E300003F08003002B03D0786800F0D8FA14E068
:104E4000D7F8E43003F04003002B0ED0D7F8E03061
:104E500003F04003002B08D0786800F017FB04E053
:104E600000BF02E000BF00E000BFE837BD4680BDE4
:104E700080B483B000AF786000BF0C37BD4680BC03
:104E8000704780B483B000AF786000BF0C37BD4678
:104E900080BC704780B483B000AF786000BF0C372F
:104EA000BD4680BC704780B483B000AF786000BF5F
:104EB0000C37BD4680BC704780B483B000AF7860CB
:104EC0000B467B8000BF0C37BD4680BC704780B569
:104ED00090B000AF78607B685B6AFB637B681B689F
:104EE0001B6803F02003002B37D1FB6B0022DA8410
:104EF000FB6B1B6814337B627B6A53E8003F3B62A9
:104F00003B6A23F08003BB63FB6B1B681433BA6BF3
:104F10003A63FB62F96A3A6B41E80023BB62BB6A01
:104F2000002BE5D1FB6B1B680C333B613B6953E8FD
:104F3000003FFB60FB6843F040037B63FB6B1B6837
:104F40000C337A6BFA61BB61B969FA6941E80023F5
:104F50007B617B69002BE5D102E0F86BFFF788FFEE
:104F600000BF4037BD4680BD80B584B000AF7860DB
:104F70007B685B6AFB60F868FFF783FF00BF103750
:104F8000BD4680BD80B59CB000AF78607B685B6A31
:104F9000FB667B681B681B6803F02003002B72D143
:104FA000FB6E0022DA85FB6E1B680C33FB64FB6C26
:104FB00053E8003FBB64BB6C23F48073BB66FB6E9D
:104FC0001B680C33BA6EBA657B65796DBA6D41E8C2
:104FD00000233B653B6D002BE5D1FB6E1B68143352
:104FE000BB63BB6B53E8003F7B637B6B23F0010328
:104FF0007B66FB6E1B6814337A6E7A643B64396C93
:105000007A6C41E80023FB63FB6B002BE5D1FB6E60
:105010001B6814337B627B6A53E8003F3B623B6A48
:1050200023F040033B66FB6E1B6814333A6E3A6311
:10503000FB62F96A3A6B41E80023BB62BB6A002B52
:10504000E5D1FB6E202283F84220FB6E1B6B012B07
:1050500019D1FB6E1B680C333B613B6953E8003F81
:10506000FB60FB6823F01003FB65FB6E1B680C33D1
:10507000FA6DFA61BB61B969FA6941E800237B61A5
:105080007B69002BE5D1FB6E00225A63FB6E1B6B24
:10509000012B06D1FB6E9B8D1946F86EFFF70CFFB6
:1050A00002E0F86E01F084F800BF7037BD4680BDA5
:1050B00080B584B000AF78607B685B6AFB60FB689A
:1050C00001225A63FB681B6B012B08D1FB689B8D87
:1050D0005B089BB21946F868FFF7EEFE02E0F8683D
:1050E000FFF7D8FE00BF1037BD4680BD80B584B045
:1050F00000AF78600023FB607B685B6ABB60BB68C5
:105100001B685B6903F08003002B14BF012300239D
:10511000DBB2FB60BB6893F84130DBB2212B08D1D6
:10512000FB68002B05D0BB680022DA84B86800F069
:10513000C1F8BB681B685B6903F04003002B14BF18
:1051400001230023DBB2FB60BB6893F84230DBB283
:10515000222B08D1FB68002B05D0BB680022DA8522
:10516000B86800F0CEF8BB685B6C43F01002BB6817
:105170005A64B868FFF797FE00BF1037BD4680BD80
:1051800080B598B000AFF860B9601346FB80BA688C
:10519000FB689A62FB68FA889A85FB6800225A6469
:1051A000FB68222283F84220FB68DB6B3E4A9A624E
:1051B000FB68DB6B3D4ADA62FB68DB6B3C4A1A63D7
:1051C000FB68DB6B00225A6307F10803FB65FB6891
:1051D000D86BFB681B6804331946FB6D1A68FB88A3
:1051E000FEF736F800233B61FB681B681B683B61D8
:1051F000FB681B685B683B613B69FB681B69002BB4
:1052000019D0FB681B680C333B643B6C53E8003FD0
:10521000FB63FB6B43F48073BB65FB681B680C335B
:10522000BA6DFA64BB64B96CFA6C41E800237B6424
:105230007B6C002BE5D1FB681B681433FB62FB6AB7
:1052400053E8003FBB62BB6A43F001037B65FB6828
:105250001B6814337A6DBA637B63796BBA6B41E870
:1052600000233B633B6B002BE5D1FB681B681433C9
:10527000BB61BB6953E8003F7B617B6943F040033E
:105280003B65FB681B6814333A6D7A623B62396A8E
:105290007A6A41E80023FB61FB69002BE5D100231A
:1052A00018466037BD4680BD854F0008B1500008E4
:1052B000ED50000880B489B000AF78607B681B684F
:1052C0000C33FB60FB6853E8003FBB60BB6823F016
:1052D000C003FB617B681B680C33FA69BA617B61B0
:1052E0007969BA6941E800233B613B69002BE5D14C
:1052F0007B68202283F8412000BF2437BD4680BC54
:10530000704780B495B000AF78607B681B680C3341
:105310007B637B6B53E8003F3B633B6B23F49073F1
:10532000FB647B681B680C33FA6C3A64FB63F96BB3
:105330003A6C41E80023BB63BB6B002BE5D17B6873
:105340001B6814333B623B6A53E8003FFB61FB6917
:1053500023F00103BB647B681B681433BA6CFA62E8
:10536000BB62B96AFA6A41E800237B627B6A002B60
:10537000E5D17B681B6B012B19D17B681B680C3353
:10538000FB60FB6853E8003FBB60BB6823F0100381
:105390007B647B681B680C337A6CBA617B617969CA
:1053A000BA6941E800233B613B69002BE5D17B688A
:1053B000202283F842207B6800221A6300BF543702
:1053C000BD4680BC704780B584B000AF78607B6814
:1053D0005B6AFB60FB680022DA85FB680022DA84E6
:1053E000F868FFF760FD00BF1037BD4680BD80B490
:1053F00085B000AF78607B6893F84130DBB2212B39
:105400003ED17B689B68B3F5805F14D17B681B69D4
:10541000002B10D17B681B6AFB60FB681B881A4657
:105420007B681B68C2F308025A607B681B6A9A1C7F
:105430007B681A6208E07B681B6A591C7A681162F3
:105440001A787B681B685A607B68DB8C9BB2013BD7
:105450009BB27A681946D184002B0FD17B681B68F8
:10546000DA687B681B6822F08002DA607B681B6860
:10547000DA687B681B6842F04002DA60002300E0D3
:10548000022318461437BD4680BC704780B582B0F1
:1054900000AF78607B681B68DA687B681B6822F065
:1054A0004002DA607B68202283F841207868FFF7A9
:1054B000DFFC002318460837BD4680BD80B58CB0A0
:1054C00000AF78607B6893F84230DBB2222B40F06B
:1054D000AE807B689B68B3F5805F17D17B681B69E2
:1054E000002B13D10023FB627B689B6ABB627B6845
:1054F0001B685B689BB2C3F308039AB2BB6A1A804D
:105500007B689B6A9A1C7B689A6226E07B689B6A30
:10551000FB620023BB627B689B68B3F5805F07D0AA
:105520007B689B68002B0AD17B681B69002B06D126
:105530007B681B685B68DAB2FB6A1A7008E07B68FC
:105540001B685B68DBB203F07F03DAB2FB6A1A7098
:105550007B689B6A5A1C7B689A627B68DB8D9BB276
:10556000013B9BB27A681946D185002B5DD17B68DF
:105570001B68DA687B681B6822F02002DA607B68AF
:105580001B68DA687B681B6822F48072DA607B68CB
:105590001B685A697B681B6822F001025A617B68AC
:1055A000202283F842207B6800225A637B681B6BB1
:1055B000012B35D17B6800221A637B681B680C3392
:1055C0007B617B6953E8003F3B613B6923F010033B
:1055D0007B627B681B680C337A6A3A62FB61F9690B
:1055E0003A6A41E80023BB61BB69002BE5D17B68C7
:1055F0001B681B6803F01003102B0AD10023FB600B
:105600007B681B681B68FB607B681B685B68FB60D2
:10561000FB687B689B8D19467868FFF74DFC02E0BC
:10562000786800F0C5FD002302E0002300E00223BB
:1056300018463037BD4680BD80B584B000AF786075
:105640007B685B685F4A934204D940F675615E48A7
:1056500000F04FFA7B68DB68002B09D07B68DB68C1
:10566000B3F5005F04D040F67661574800F041FA88
:105670007B681B69002B0ED07B681B69B3F5806FBC
:1056800009D07B681B69B3F5C06F04D040F6776121
:105690004D4800F02EFA7B685A694FF6F3731340B9
:1056A000002B03D17B685B69002B04D140F6786145
:1056B000454800F01EFA7B681B681B6923F44051C3
:1056C0007B68DA687B681B680A431A617B689A68A2
:1056D0007B681B691A437B685B691343BB607B680B
:1056E0001B68DB6823F4B05323F00C037A6812685C
:1056F000B9680B43D3607B681B685B6923F4407116
:105700007B689A697B681B680A435A617B681B68DF
:105710002E4A934203D1FDF7ADF9F86002E0FDF7A0
:1057200095F9F860FA6813469B0013449A001A44EE
:105730007B685B689B00B2FBF3F3254AA2FB032363
:105740005B091901FA6813469B0013449A001A4436
:105750007B685B689B00B2FBF3F21D4BA3FB02036B
:105760005B09642000FB03F3D31A1B013233184A90
:10577000A2FB03235B0903F0F0031944FA68134604
:105780009B0013449A001A447B685B689B00B2FB41
:10579000F3F20F4BA3FB02035B09642000FB03F34E
:1057A000D31A1B0132330A4AA2FB03235B0903F01D
:1057B0000F027B681B680A449A6000BF1037BD4621
:1057C00080BD00BF20AA4400647A00080038014070
:1057D0001F85EB5180B500AF184B194A1A60174B63
:1057E00004225A60154B4FF080429A60134B0022FE
:1057F000DA60124B4FF480221A61104B4FF4001202
:105800005A610E4B00221A760C4B00225A760B4B33
:1058100000229A76094B0022DA76084B00221A778A
:10582000064B00225A770548FBF728FB0346002B5E
:1058300001D000F058F900BF80BD00BF2C0000204F
:105840000064004080B588B000AF786007F11003B5
:1058500000221A605A609A60DA607B681B68204AEE
:10586000934239D11F4BDB691E4A43F00073D36169
:105870001C4BDB6903F00073FB60FB68194B9B69F1
:10588000184A43F004039361164B9B6903F0040329
:10589000BB60BB684FF400633B6100237B61002366
:1058A000BB6107F1100319460F48FDF715F94FF4D6
:1058B00080533B6102237B610323FB6107F11003EB
:1058C00019460948FDF708F9002200211420FEF7C7
:1058D00001F81420FEF72AF800BF2037BD4680BD2E
:1058E00000640040001002400008014080B582B012
:1058F00000AF104B5B690F4A43F0010353610D4B3E
:105900005B6903F001037B607B68002200210E20AD
:10591000FDF7E0FF0E20FEF709F80022002110201D
:10592000FDF7D8FF1020FEF701F800BF0837BD468D
:1059300080BD00BF0010024080B588B000AF07F105
:10594000100300221A605A609A60DA60344B9B6937
:10595000334A43F010039361314B9B6903F010030A
:10596000FB60FB682E4B9B692D4A43F0200393613B
:105970002B4B9B6903F02003BB60BB68284B9B69E2
:10598000274A43F004039361254B9B6903F004030A
:105990007B607B68224B9B69214A43F0080393613B
:1059A0001F4B9B6903F008033B603B6800224FF4E8
:1059B00000511C48FDF7FEFA4FF400533B610123F0
:1059C0007B610023BB610223FB6107F110031946D1
:1059D0001448FDF781F84FF440433B6103237B619A
:1059E00007F1100319460F48FDF776F848F2F31354
:1059F0003B6103237B6107F1100319460A48FDF759
:105A00006BF84FF6FF733B6103237B6107F11003D3
:105A100019460648FDF760F800BF2037BD4680BD37
:105A2000001002400010014000080140000C01403D
:105A300080B500AFFCF74CFA00F010F8FFF77CFFE0
:105A4000FFF754FF00F008F900F07AF900F0A2F92E
:105A5000FFF7C0FE00F0B2FA00BFFDE780B590B0DE
:105A600000AF07F1180328220021184601F0D0FEEC
:105A70003B1D00221A605A609A60DA601A610123A5
:105A8000BB614FF48033FB6100233B620123BB62A7
:105A900002237B634FF48033BB634FF4E013FB635B
:105AA00007F118031846FCF775FA0346002B01D0DE
:105AB00000F019F80F237B600223BB600023FB601A
:105AC0004FF480633B6100237B613B1D022118463C
:105AD000FCF7CEFD0346002B01D000F004F800BF18
