:020000040800F2
:10000000005000209D5000080D4A0008154A0008C5
:100010001D4A0008254A00082D4A0008000000007B
:10002000000000000000000000000000354A000849
:10003000414A0008000000004D4A0008594A0008E3
:10004000E5500008E5500008E5500008E5500008BC
:10005000E5500008654A0008E5500008E550000832
:10006000E5500008E5500008E5500008E55000089C
:10007000E5500008E5500008714A0008E550000806
:10008000854A0008E5500008E5500008E5500008E2
:10009000E5500008E5500008E5500008E55000086C
:1000A000E5500008E5500008E5500008E55000085C
:1000B000E5500008994A0008E5500008E55000089E
:1000C000E5500008E5500008E5500008E55000083C
:1000D000E5500008AD4A0008C14A0008E550000894
:1000E000E5500008E5500008E55000080000000059
:1000F0000000000000000000000000000000000000
:0C01000000000000000000005FF808F1A3
:1001100070B54FF0FF0C4CF4E06C1CEA11541DBF9D
:100120001CEA135594EA0C0F95EA0C0F00F0DEF868
:100130002C4481EA030621EA4C5123EA4C5350EA4D
:10014000013518BF52EA033541F4801143F480139E
:1001500038D0A0FB02CE4FF00005E1FB02E506F02F
:100160000042E0FB03E54FF00006E1FB03569CF084
:10017000000F18BF4EF0010EA4F1FF04B6F5007F8A
:1001800064F5407404D25FEA4E0E6D4146EB0606FC
:1001900042EAC62141EA55514FEAC52040EA5E5085
:1001A0004FEACE2EB4F1FD0C88BFBCF5E06F1ED82F
:1001B000BEF1004F08BF5FEA500E50F1000041EB66
:1001C000045170BD06F0004646EA010140EA020013
:1001D00081EA0301B4EB5C04C2BFD4EB0C0541EA35
:1001E000045170BD41F480114FF0000E013C00F34A
:1001F000AB8014F1360FDEBF002001F0004170BD6E
:10020000C4F10004203C35DA0C341BDC04F1140486
:10021000C4F1200500FA05F320FA04F001FA05F212
:1002200040EA020001F0004221F0004110EBD370DF
:1002300021FA04F642EB06015EEA430E08BF20EA0B
:10024000D37070BDC4F10C04C4F1200500FA04F3AE
:1002500020FA05F001FA04F240EA020001F0004140
:1002600010EBD37041F100015EEA430E08BF20EAB3
:10027000D37070BDC4F1200500FA05F24EEA020EFB
:1002800020FA04F301FA05F243EA020321FA04F02A
:1002900001F0004121FA04F220EA020000EBD370E1
:1002A0005EEA430E08BF20EAD37070BD94F0000FE1
:1002B0000FD101F00046400041EB010111F4801F15
:1002C00008BF013CF7D041EA060195F0000F18BFC6
:1002D000704703F00046520043EB030313F4801F02
:1002E00008BF013DF7D043EA0603704794EA0C0FBC
:1002F0000CEA135518BF95EA0C0F0CD050EA4106D2
:1003000018BF52EA4306D1D181EA030101F000414E
:100310004FF0000070BD50EA410606BF1046194676
:1003200052EA430619D094EA0C0F02D150EA013682
:1003300013D195EA0C0F05D152EA03361CBF1046C3
:1003400019460AD181EA030101F0004141F0FE4162
:1003500041F470014FF0000070BD41F0FE4141F4E6
:10036000780170BD81F0004102E000BF83F00043DE
:1003700030B54FEA41044FEA430594EA050F08BF40
:1003800090EA020F1FBF54EA000C55EA020C7FEA04
:10039000645C7FEA655C00F0E2804FEA5454D4EB81
:1003A0005555B8BF6D420CDD2C4480EA020281EA4B
:1003B000030382EA000083EA010180EA020281EA83
:1003C0000303362D88BF30BD11F0004F4FEA0131D5
:1003D0004FF4801C4CEA113102D0404261EB4101E4
:1003E00013F0004F4FEA03334CEA133302D052426A
:1003F00063EB430394EA050F00F0A780A4F1010426
:10040000D5F1200E0DDB02FA0EFC22FA05F280185F
:1004100041F1000103FA0EF2801843FA05F3594145
:100420000EE0A5F120050EF1200E012A03FA0EFCC4
:1004300028BF4CF0020C43FA05F3C01851EBE371EE
:1004400001F0004507D54FF0000EDCF1000C7EEB0B
:1004500000006EEB0101B1F5801F1BD3B1F5001F49
:100460000CD349085FEA30004FEA3C0C04F1010468
:100470004FEA445212F5800F80F09A80BCF1004F91
:1004800008BF5FEA500C50F1000041EB045141EA13
:10049000050130BD5FEA4C0C404141EB0101013CDC
:1004A00028BFB1F5801FE9D291F0000F04BF0146CB
:1004B0000020B1FA81F308BF2033A3F10B03B3F19D
:1004C00020020CDA0C3208DD02F1140CC2F10C022D
:1004D00001FA0CF021FA02F10CE002F11402D8BF8B
:1004E000C2F1200C01FA02F120FA0CFCDCBF41EA57
:1004F0000C019040E41AA2BF01EB0451294330BD26
:100500006FEA04041F3C1CDA0C340EDC04F1140402
:10051000C4F1200220FA04F001FA02F340EA0300D9
:1005200021FA04F345EA030130BDC4F10C04C4F11F
:10053000200220FA02F001FA04F340EA03002946FF
:1005400030BD21FA04F0294630BD94F0000F83F449
:10055000801306BF81F480110134013D4EE77FEA2C
:10056000645C18BF7FEA655C29D094EA050F08BF78
:1005700090EA020F05D054EA000C04BF1946104659
:1005800030BD91EA030F1EBF0021002030BD5FEA9D
:10059000545C05D14000494128BF41F0004130BDC5
:1005A00014F580043CBF01F5801130BD01F0004519
:1005B00045F0FE4141F470014FF0000030BD7FEA8C
:1005C000645C1ABF194610467FEA655C1CBF0B4687
:1005D000024650EA013406BF52EA033591EA030F9E
:1005E00041F4002130BD00BF90F0000F04BF002196
:1005F000704730B54FF4806404F132044FF00005C9
:100600004FF0000150E700BF90F0000F04BF002141
:10061000704730B54FF4806404F1320410F00045A7
:1006200048BF40424FF000013EE700BF42004FEAA2
:10063000E2014FEA31014FEA02701FBF12F07F431F
:1006400093F07F4F81F06051704732F07F4208BFD6
:10065000704793F07F4F04BF41F40021704730B5DD
:100660004FF4607401F0004521F000411CE700BF29
:1006700050EA010208BF704730B54FF000050AE0AC
:1006800050EA010208BF704730B511F0004502D5AD
:10069000404261EB41014FF4806404F132045FEAAF
:1006A000915C3FF4D8AE4FF003025FEADC0C18BF58
:1006B00003325FEADC0C18BF033202EBDC02C2F14A
:1006C000200300FA03FC20FA02F001FA03FE40EADC
:1006D0000E0021FA02F11444BDE600BF4FF0FF3CCA
:1006E00006E000BF4FF0010C02E000BF4FF0010C2C
:1006F0004DF804CD4FEA410C7FEA6C5C4FEA430CA5
:1007000018BF7FEA6C5C1BD001B050EA410C0CBFF3
:1007100052EA430C91EA030F02BF90EA020F002055
:10072000704710F1000F91EA030F58BF994208BFBC
:1007300090422CBFD8176FEAE37040F00100704779
:100740004FEA410C7FEA6C5C02D150EA013C07D1D0
:100750004FEA430C7FEA6C5CD6D152EA033CD3D01B
:100760005DF8040B704700BF8446104662468C4615
:100770001946634600E000BF01B5FFF7B7FF002848
:1007800048BF10F1000F01BD4DF808EDFFF7F4FF71
:100790000CBF012000205DF808FB00BF4DF808EDFC
:1007A000FFF7EAFF34BF012000205DF808FB00BF1F
:1007B0004DF808EDFFF7E0FF94BF012000205DF841
:1007C00008FB00BF4DF808EDFFF7CEFF94BF0120F6
:1007D00000205DF808FB00BF4DF808EDFFF7C4FFEF
:1007E00034BF012000205DF808FB00BF4FEA410242
:1007F00012F5001215D211D56FF47873B3EB625273
:1008000012D94FEAC12343F0004343EA505311F099
:10081000004F23FA02F018BF404270474FF000002B
:10082000704750EA013005D111F0004008BF6FF069
:10083000004070474FF00000704700BF4FEA410290
:10084000B2F1E04324BFB3F5001CDCF1FE5C0DD92E
:1008500001F0004C4FEAC0024CEA5070B2F1004F78
:1008600040EB830008BF20F00100704711F0804F7B
:1008700021D113F13872BCBF01F00040704741F440
:1008800080114FEA5252C2F11802C2F1200C10FA44
:100890000CF320FA02F018BF40F001004FEAC12328
:1008A0004FEAD32303FA0CFC40EA0C0023FA02F3CC
:1008B0004FEA4303CCE77FEA625307D150EA0133A2
:1008C0001EBF4FF0FE4040F44000704701F0004072
:1008D00040F0FE4040F40000704700BF80F0004050
:1008E00002E000BF81F0004142001FBF5FEA410308
:1008F00092EA030F7FEA226C7FEA236C6AD04FEA08
:100900001262D2EB1363C1BFD2184140484041404C
:10091000B8BF5B42192B88BF704710F0004F40F4FE
:10092000000020F07F4018BF404211F0004F41F41A
:10093000000121F07F4118BF494292EA030F3FD0E6
:10094000A2F1010241FA03FC10EB0C00C3F12003F9
:1009500001FA03F100F0004302D5494260EB400088
:10096000B0F5000F13D3B0F1807F06D340084FEAF3
:10097000310102F10102FE2A51D2B1F1004F40EBE8
:10098000C25008BF20F0010040EA03007047490050
:1009900040EB0000013A28BFB0F5000FEDD2B0FAED
:1009A00080FCACF1080CB2EB0C0200FA0CF0AABF10
:1009B00000EBC25052421843BCBFD04018437047AE
:1009C00092F0000F81F4000106BF80F400000132B4
:1009D000013BB5E74FEA41037FEA226C18BF7FEA8B
:1009E000236C21D092EA030F04D092F0000F08BFCD
:1009F0000846704790EA010F1CBF0020704712F0B4
:100A00007F4F04D1400028BF40F00040704712F1F2
:100A100000723CBF00F50000704700F0004343F057
:100A2000FE4040F4000070477FEA226216BF08468D
:100A30007FEA23630146420206BF5FEA412390EA50
:100A4000010F40F4800070474FF0000304E000BF46
:100A500010F0004348BF40425FEA000C08BF7047F7
:100A600043F0964301464FF000001CE050EA0102BB
:100A700008BF70474FF000030AE000BF50EA0102D0
:100A800008BF704711F0004302D5404261EB4101BD
:100A90005FEA010C02BF84460146002043F0B643E2
:100AA00008BFA3F18053A3F50003BCFA8CF2083A07
:100AB000A3EBC25310DB01FA02FC634400FA02FC10
:100AC000C2F12002BCF1004F20FA02F243EB020017
:100AD00008BF20F00100704702F1200201FA02FC79
:100AE000C2F1200250EA4C0021FA02F243EB02006C
:100AF00008BF20EADC7070474FF0FF0C1CEAD052B0
:100B00001EBF1CEAD15392EA0C0F93EA0C0F6FD070
:100B10001A4480EA010C400218BF5FEA41211ED04E
:100B20004FF0006343EA501043EA5111A0FB01313A
:100B30000CF00040B1F5000F3EBF490041EAD3710F
:100B40005B0040EA010062F17F02FD2A1DD8B3F18B
:100B5000004F40EBC25008BF20F00100704790F0FA
:100B6000000F0CF0004C08BF49024CEA502040EA4C
:100B700051207F3AC2BFD2F1FF0340EAC250704712
:100B800040F400004FF00003013A5DDC12F1190F50
:100B9000DCBF00F000407047C2F10002410021FAC2
:100BA00002F1C2F1200200FA02FC5FEA310040F1DA
:100BB000000053EA4C0308BF20EADC70704792F053
:100BC000000F00F0004C02BF400010F4000F013A8B
:100BD000F9D040EA0C0093F0000F01F0004C02BF86
:100BE000490011F4000F013BF9D041EA0C018FE7F5
:100BF0000CEAD15392EA0C0F18BF93EA0C0F0AD0FB
:100C000030F0004C18BF31F0004CD8D180EA010020
:100C100000F00040704790F0000F17BF90F0004FB9
:100C2000084691F0000F91F0004F14D092EA0C0F9B
:100C300001D142020FD193EA0C0F03D14B0218BF2E
:100C4000084608D180EA010000F0004040F0FE4074
:100C500040F40000704740F0FE4040F44000704710
:100C60004FF0FF0C1CEAD0521EBF1CEAD15392EA8F
:100C70000C0F93EA0C0F69D0A2EB030280EA010C7F
:100C800049024FEA402037D04FF0805343EA111118
:100C900043EA10130CF000408B4238BF5B0042F176
:100CA0007D024FF4000C8B4224BF5B1A40EA0C001B
:100CB000B3EB510F24BFA3EB510340EA5C00B3EB4D
:100CC000910F24BFA3EB910340EA9C00B3EBD10F3B
:100CD00024BFA3EBD10340EADC001B0118BF5FEA8D
:100CE0001C1CE0D1FD2A3FF650AF8B4240EBC250B6
:100CF00008BF20F0010070470CF0004C4CEA502077
:100D00007F32C2BFD2F1FF0340EAC250704740F4C5
:100D100000004FF00003013A37E792F0000F00F0B7
:100D2000004C02BF400010F4000F013AF9D040EA35
:100D30000C0093F0000F01F0004C02BF490011F4C9
:100D4000000F013BF9D041EA0C0195E70CEAD153C1
:100D500092EA0C0F08D142027FF47DAF93EA0C0FA8
:100D60007FF470AF084676E793EA0C0F04D14B028C
:100D70003FF44CAF08466EE730F0004C18BF31F03E
:100D8000004CCAD130F000427FF45CAF31F0004338
:100D90007FF43CAF5FE700BF4FEA4002B2F1FE4F85
:100DA0000FD34FF09E03B3EB12620DD94FEA00232D
:100DB00043F0004310F0004F23FA02F018BF404206
:100DC00070474FF00000704712F1610F01D14202ED
:100DD00005D110F0004008BF6FF0004070474FF0A1
:100DE000000070470348044B834202D0034B03B119
:100DF000184770470C0000200C0000200000000085
:100E00000548064B1B1AD90F01EBA301491002D06C
:100E1000034B03B1184770470C0000200C00002062
:100E20000000000010B5064C237843B9FFF7DAFF45
:100E3000044B13B10448AFF300800123237010BDAD
:100E40000C000020000000001864000808B5054BE5
:100E50001BB105490548AFF30080BDE80840FFF726
:100E6000CFBF00BF00000000100000201864000881
:100E700080B400AF00BFBD4680BC704780B582B073
:100E800000AF78607B68002B01D10123A1E07B6873
:100E90001B68524A934213D07B681B68B3F1804FA2
:100EA0000ED07B681B684E4A934209D07B681B6852
:100EB0004C4A934204D040F213114B4803F061FDB9
:100EC0007B689B68002B14D07B689B68102B10D02C
:100ED0007B689B68202B0CD07B689B68402B08D0DC
:100EE0007B689B68602B04D04FF48A713E4803F006
:100EF00048FD7B681B69002B0ED07B681B69B3F52E
:100F0000807F09D07B681B69B3F5007F04D040F275
:100F10001511354803F035FD7B68DB68002B04D0E4
:100F20007B68DB68B3F5803F04D34FF48B712E48A8
:100F300003F027FD7B689B69002B08D07B689B69C9
:100F4000802B04D040F21711274803F01AFD7B686C
:100F500093F83D30DBB2002B06D17B68002283F88A
:100F60003C20786803F004FE7B68022283F83D2071
:100F70007B681A687B6804331946104600F068FCE9
:100F80007B68012283F846207B68012283F83E209B
:100F90007B68012283F83F207B68012283F8402090
:100FA0007B68012283F841207B68012283F842207C
:100FB0007B68012283F843207B68012283F8442068
:100FC0007B68012283F845207B68012283F83D205D
:100FD000002318460837BD4680BD00BF002C0140E5
:100FE00000040040000800403064000880B584B070
:100FF00000AF78607B681B682E4A934213D07B68F1
:101000001B68B3F1804F0ED07B681B682A4A93425D
:1010100009D07B681B68294A934204D04FF4E871D9
:10102000274803F0AEFC7B6893F83D30DBB2012B20
:1010300001D001233AE07B68022283F83D207B68DF
:101040001B68DA687B681B6842F00102DA607B6823
:101050001B68184A93420ED07B681B68B3F1804F1F
:1010600009D07B681B68144A934204D07B681B68D4
:10107000124A934211D17B681B689B6803F00703F7
:10108000FB60FB68062B10D07B681B681A687B68C6
:101090001B6842F001021A6007E07B681B681A684F
:1010A0007B681B6842F001021A6000231846103763
:1010B000BD4680BD002C01400004004000080040F7
:1010C0003064000880B584B000AF78607B681B682E
:1010D000DB68FB607B681B681B69BB60BB6803F057
:1010E0000203002B20D0FB6803F00203002B1BD06F
:1010F0007B681B686FF002021A617B6801221A7715
:101100007B681B689B6903F00303002B03D078689E
:1011100000F083FB05E0786800F076FB786800F06B
:1011200085FB7B6800221A77BB6803F00403002B61
:1011300020D0FB6803F00403002B1BD07B681B68E6
:101140006FF004021A617B6802221A777B681B68C1
:101150009B6903F44073002B03D0786800F05DFBBB
:1011600005E0786800F050FB786800F05FFB7B6872
:1011700000221A77BB6803F00803002B20D0FB681D
:1011800003F00803002B1BD07B681B686FF008027C
:101190001A617B6804221A777B681B68DB6903F09D
:1011A0000303002B03D0786800F037FB05E0786874
:1011B00000F02AFB786800F039FB7B6800221A7780
:1011C000BB6803F01003002B20D0FB6803F0100372
:1011D000002B1BD07B681B686FF010021A617B68C4
:1011E00008221A777B681B68DB6903F44073002BC5
:1011F00003D0786800F011FB05E0786800F004FB8C
:10120000786800F013FB7B6800221A77BB6803F054
:101210000103002B0CD0FB6803F00103002B07D067
:101220007B681B686FF001021A61786803F088FE22
:10123000BB6803F08003002B0CD0FB6803F0800335
:10124000002B07D07B681B686FF080021A617868FA
:1012500000F0B5FCBB6803F04003002B0CD0FB682A
:1012600003F04003002B07D07B681B686FF040023F
:101270001A61786800F0E3FABB6803F02003002BE2
:101280000CD0FB6803F02003002B07D07B681B68A1
:101290006FF020021A61786800F088FC00BF1037F8
:1012A000BD4680BD80B584B000AF78603960002352
:1012B000FB737B6893F83C30012B01D1022396E24B
:1012C0007B68012283F83C207B68022283F83D2062
:1012D0003B681B68B3F5805F29D03B681B68702BA7
:1012E00025D03B681B68B3F5005F20D03B681B68C6
:1012F000402B1CD03B681B68502B18D03B681B68E8
:10130000602B14D03B681B68002B10D03B681B6817
:10131000102B0CD03B681B68202B08D03B681B6847
:10132000302B04D041F2C2416B4803F02AFB7B68AA
:101330001B689B68BB60BB6823F07703BB60BB681E
:1013400023F47F43BB607B681B68BA689A603B6884
:101350001B68B3F5005F00F0C780B3F5005F00F2D3
:101360003982B3F5805F2DD0B3F5805F00F2328211
:10137000702B45D0702B00F22D82602B00F067811E
:10138000602B00F22782502B00F01581502B00F2C9
:101390002182402B00F0B081402B00F21B82302BC9
:1013A00000F0F681302B00F21582202B00F0F08146
:1013B000202B00F20F82002B00F0EA81102B00F0AE
:1013C000E78107E27B681B68444A934200F005828C
:1013D0007B681B68B3F1804F00F0FF817B681B685E
:1013E0003F4A934200F0F9817B681B683D4A934273
:1013F00000F0F38141F2CE41374803F0C2FAECE14C
:101400007B681B68354A934213D07B681B68B3F135
:10141000804F0ED07B681B68314A934209D07B68AD
:101420001B68304A934204D041F2D5412A4803F068
:10143000A8FA3B689B68002B13D03B689B68B3F508
:10144000805F0ED03B689B68B3F5005F09D03B68B6
:101450009B68B3F5405F04D041F2D8411E4803F0C9
:1014600090FA3B685B68B3F5004F14D03B685B684B
:10147000002B10D03B685B68002B0CD03B685B688E
:10148000022B08D03B685B680A2B04D041F2D9419B
:10149000114803F076FA3B68DB680F2B04D941F260
:1014A000DA410D4803F06DFA7B6818683B6899686B
:1014B0003B685A683B68DB6800F0AFFA7B681B68E2
:1014C0009B68BB60BB6843F07703BB607B681B68AD
:1014D000BA689A6082E100BF30640008002C0140C5
:1014E00000040040000800407B681B687E4A93426D
:1014F00013D07B681B68B3F1804F0ED07B681B68EC
:101500007A4A934209D07B681B68794A934204D097
:1015100041F2ED41774803F034FA3B689B68002BB9
:1015200013D03B689B68B3F5805F0ED03B689B6827
:10153000B3F5005F09D03B689B68B3F5405F04D00A
:1015400041F2F0416B4803F01CFA3B685B68B3F56D
:10155000004F14D03B685B68002B10D03B685B6881
:10156000002B0CD03B685B68022B08D03B685B68A3
:101570000A2B04D041F2F1415E4803F002FA3B68C5
:10158000DB680F2B04D941F2F2415A4803F0F9F914
:101590007B6818683B6899683B685A683B68DB68F9
:1015A00000F03BFA7B681B689A687B681B6842F412
:1015B00080429A6012E17B681B684B4A934213D0C9
:1015C0007B681B68B3F1804F0ED07B681B68474A6D
:1015D000934209D07B681B68454A934204D041F28C
:1015E0000151444803F0CDF93B685B68B3F5004F07
:1015F00014D03B685B68002B10D03B685B68002B05
:101600000CD03B685B68022B08D03B685B680A2BF8
:1016100004D041F20451374803F0B3F93B68DB686A
:101620000F2B04D941F20551324803F0AAF97B6827
:1016300018683B6859683B68DB681A4600F076F921
:101640007B681B685021184600F0CDF9C6E07B6826
:101650001B68254A934213D07B681B68B3F1804F07
:101660000ED07B681B68214A934209D07B681B68B7
:101670001F4A934204D041F211511E4803F081F9F0
:101680003B685B68B3F5004F14D03B685B68002B88
:1016900010D03B685B68002B0CD03B685B68022B6A
:1016A00008D03B685B680A2B04D041F21451114802
:1016B00003F067F93B68DB680F2B04D941F2155141
:1016C0000C4803F05EF97B6818683B6859683B6812
:1016D000DB681A4600F058F97B681B6860211846E1
:1016E00000F081F97AE000BF002C014000040040C6
:1016F00000080040306400087B681B683E4A934243
:1017000013D07B681B68B3F1804F0ED07B681B68D9
:101710003A4A934209D07B681B68394A934204D005
:1017200041F22151374803F02CF93B685B68B3F56F
:10173000004F14D03B685B68002B10D03B685B689F
:10174000002B0CD03B685B68022B08D03B685B68C1
:101750000A2B04D041F224512A4803F012F93B68C5
:10176000DB680F2B04D941F22551264803F009F913
:101770007B6818683B6859683B68DB681A4600F06C
:10178000D5F87B681B684021184600F02CF925E04D
:101790007B681B68184A934213D07B681B68B3F1BF
:1017A000804F0ED07B681B68144A934209D07B6837
:1017B0001B68134A934204D041F23451114803F09C
:1017C000E0F87B681A683B681B681946104600F011
:1017D0000AF903E00123FB7300E000BF7B680122EC
:1017E00083F83D207B68002283F83C20FB7B184671
:1017F0001037BD4680BD00BF002C014000040040F2
:10180000000800403064000880B483B000AF786006
:1018100000BF0C37BD4680BC704780B483B000AFBA
:10182000786000BF0C37BD4680BC704780B483B081
:1018300000AF786000BF0C37BD4680BC704780B4F5
:1018400083B000AF786000BF0C37BD4680BC7047E6
:1018500080B485B000AF786039607B681B68FB603E
:101860007B682F4A93420BD07B68B3F1804F07D03F
:101870007B682C4A934203D07B682B4A934208D161
:10188000FB6823F07003FB603B685B68FA681343F6
:10189000FB607B68224A93420BD07B68B3F1804F98
:1018A00007D07B681F4A934203D07B681E4A93424D
:1018B00008D1FB6823F44073FB603B68DB68FA687F
:1018C0001343FB60FB6823F080023B685B691343B2
:1018D000FB607B68FA681A603B689A687B68DA622A
:1018E0003B681A687B689A627B680D4A934203D111
:1018F0003B681A697B681A637B6801225A617B68BE
:101900001B6903F00103002B05D07B681B6923F0E2
:1019100001027B681A6100BF1437BD4680BC704766
:10192000002C0140000400400008004080B487B053
:1019300000AFF860B9607A60FB681B6A7B61FB6886
:101940001B6A23F00102FB681A62FB689B693B611A
:101950003B6923F0F0033B617B681B013A69134349
:101960003B617B6923F00A037B617A69BB6813439F
:101970007B61FB683A699A61FB687A691A6200BF09
:101980001C37BD4680BC704780B487B000AFF8609C
:10199000B9607A60FB681B6A7B61FB681B6A23F095
:1019A0001002FB681A62FB689B693B613B6923F488
:1019B00070433B617B681B033A6913433B617B695E
:1019C00023F0A0037B61BB681B017A6913437B6131
:1019D000FB683A699A61FB687A691A6200BF1C3732
:1019E000BD4680BC704780B485B000AF7860396078
:1019F0007B689B68FB60FB6823F07003FB603A68C0
:101A0000FB68134343F00703FB607B68FA689A6046
:101A100000BF1437BD4680BC704780B487B000AFAC
:101A2000F860B9607A603B60FB689B687B617B69AA
:101A300023F47F437B613B681A027B681A43BB68CF
:101A400013437A6913437B61FB687A699A6000BF2C
:101A50001C37BD4680BC704780B584B000AF78604D
:101A600039607B681B684D4A934213D07B681B68C2
:101A7000B3F1804F0ED07B681B68494A934209D06E
:101A80007B681B68474A934204D040F2A9714648DC
:101A900002F077FF3B681B68002B20D03B681B6877
:101AA000102B1CD03B681B68202B18D03B681B6890
:101AB000302B14D03B681B68402B10D03B681B6850
:101AC000502B0CD03B681B68602B08D03B681B6810
:101AD000702B04D040F2AA71334802F052FF3B68E9
:101AE0005B68802B08D03B685B68002B04D040F219
:101AF000AB712D4802F045FF7B6893F83C30012B19
:101B000001D1022346E07B68012283F83C207B68F8
:101B1000022283F83D207B681B685B68FB607B6862
:101B20001B689B68BB60FB6823F07003FB603B682D
:101B30001B68FA681343FB607B681B68FA685A608D
:101B40007B681B68154A93420ED07B681B68B3F113
:101B5000804F09D07B681B68114A934204D07B6890
:101B60001B68104A93420CD1BB6823F08003BB6012
:101B70003B685B68BA681343BB607B681B68BA68E4
:101B80009A607B68012283F83D207B68002283F8FD
:101B90003C20002318461037BD4680BD002C014074
:101BA00000040040000800407464000880B483B062
:101BB00000AF786000BF0C37BD4680BC704780B472
:101BC00083B000AF786000BF0C37BD4680BC704763
:101BD00080B500AF084B1B68074A43F01003136041
:101BE000032001F0D7FC0F2000F008F802F0D4FE2B
:101BF0000023184680BD00BF0020024080B582B09F
:101C000000AF7860124B1A68124B1B7819464FF4DC
:101C10007A73B3FBF1F3B2FBF3F3184601F01EFD48
:101C20000346002B01D001230EE07B680F2B0AD85E
:101C3000002279684FF0FF3001F0CCFC064A7B6847
:101C40001360002300E0012318460837BD4680BD1D
:101C500000000020080000200400002080B400AF35
:101C6000054B1B781A46054B1B681344034A136047
:101C700000BFBD4680BC704708000020280000203F
:101C800080B400AF024B1B681846BD4680BC70474D
:101C90002800002080B586B000AF78607B68002BFC
:101CA00001D101235AE37B681B68002B1CD07B68A1
:101CB0001B6803F00103002B16D17B681B6803F03F
:101CC0000203002B10D17B681B6803F00803002B74
:101CD0000AD17B681B6803F00403002B04D140F297
:101CE00065118F4802F04DFE7B681B6803F001030D
:101CF000002B00F09A807B685B68002B0ED07B681D
:101D00005B68B3F5803F09D07B685B68B3F5A02FB3
:101D100004D040F26B11824802F033FE814B5B68C5
:101D200003F00C03042B0CD07E4B5B6803F00C0318
:101D3000082B12D17B4B5B6803F48033B3F5803FF3
:101D40000BD1784B1B6803F40033002B6CD07B68FD
:101D50005B68002B68D1012300E37B685B68B3F507
:101D6000803F06D16F4B1B686E4A43F4803313608B
:101D70002EE07B685B68002B0CD16A4B1B68694ABC
:101D800023F480331360674B1B68664A23F4802377
:101D900013601DE07B685B68B3F5A02F0CD1614B2D
:101DA0001B68604A43F4802313605E4B1B685D4AE6
:101DB00043F4803313600BE05A4B1B68594A23F4F9
:101DC00080331360574B1B68564A23F480231360FB
:101DD0007B685B68002B13D0FFF752FF386108E087
:101DE000FFF74EFF02463B69D31A642B01D9032348
:101DF000B4E24C4B1B6803F40033002BF0D014E02A
:101E0000FFF73EFF386108E0FFF73AFF02463B6903
:101E1000D31A642B01D90323A0E2424B1B6803F4BD
:101E20000033002BF0D100E000BF7B681B6803F09B
:101E30000203002B00F080807B681B69002B08D018
:101E40007B681B69012B04D040F29F11344802F0DB
:101E500098FD7B685B691F2B04D94FF4D071304823
:101E600002F08FFD2F4B5B6803F00C03002B0BD0AF
:101E70002C4B5B6803F00C03082B1CD1294B5B68CF
:101E800003F48033002B16D1264B1B6803F00203AA
:101E9000002B05D07B681B69012B01D001235DE27B
:101EA000204B1B6823F0F8027B685B69DB001D494F
:101EB00013430B6040E07B681B69002B20D01A4B5A
:101EC00001221A60FFF7DCFE386108E0FFF7D8FE58
:101ED00002463B69D31A022B01D903233EE2114B80
:101EE0001B6803F00203002BF0D00E4B1B6823F09D
:101EF000F8027B685B69DB000A4913430B601BE057
:101F0000094B00221A60FFF7BBFE38610EE0FFF7B5
:101F1000B7FE02463B69D31A022B07D903231DE201
:101F2000BC64000800100240000042427D4B1B6868
:101F300003F00203002BEAD17B681B6803F008035F
:101F4000002B40D07B689B69002B08D07B689B6985
:101F5000012B04D04FF4F071734802F012FD7B683E
:101F60009B69002B19D0714B01221A60FFF788FE84
:101F7000386108E0FFF784FE02463B69D31A022B62
:101F800001D90323EAE1674B5B6A03F00203002BEC
:101F9000F0D0012000F002FC15E0644B00221A6032
:101FA000FFF76EFE386108E0FFF76AFE02463B6904
:101FB000D31A022B01D90323D0E15A4B5B6A03F0F9
:101FC0000203002BF0D17B681B6803F00403002B95
:101FD00000F0BF800023FB757B68DB68002B0CD012
:101FE0007B68DB68012B08D07B68DB68052B04D09D
:101FF00040F20F214C4802F0C4FC4A4BDB6903F06D
:102000008053002B0DD1474BDB69464A43F0805388
:10201000D361444BDB6903F08053BB60BB68012391
:10202000FB75434B1B6803F48073002B18D1404BA6
:102030001B683F4A43F480731360FFF721FE386149
:1020400008E0FFF71DFE02463B69D31A642B01D955
:10205000032383E1364B1B6803F48073002BF0D01D
:102060007B68DB68012B06D12E4B1B6A2D4A43F09F
:10207000010313622DE07B68DB68002B0CD1294B38
:102080001B6A284A23F001031362264B1B6A254A68
:1020900023F0040313621CE07B68DB68052B0CD182
:1020A000204B1B6A1F4A43F0040313621D4B1B6A3B
:1020B0001C4A43F0010313620BE01A4B1B6A194AD6
:1020C00023F001031362174B1B6A164A23F0040323
:1020D00013627B68DB68002B15D0FFF7D1FD3861F8
:1020E0000AE0FFF7CDFD02463B69D31A41F2883280
:1020F000934201D9032331E10A4B1B6A03F0020327
:10210000002BEED01CE0FFF7BBFD386112E0FFF7BB
:10211000B7FD02463B69D31A41F28832934209D98E
:1021200003231BE100100240BC640008800442420B
:10213000007000408B4B1B6A03F00203002BE6D1BA
:10214000FB7D012B05D1874BDB69864A23F0805349
:10215000D3617B68DB69002B0CD07B68DB69012BCA
:1021600008D07B68DB69022B04D040F2AD217E48A9
:1021700002F007FC7B68DB69002B00F0EE80794BF6
:102180005B6803F00C03082B00F0CE807B68DB69F2
:10219000022B40F0B2807B681B6A002B09D07B6861
:1021A0001B6AB3F5803F04D040F2B6216E4802F0BE
:1021B000E8FB7B685B6A002B4AD07B685B6AB3F5FF
:1021C000802F45D07B685B6AB3F5002F40D07B68D9
:1021D0005B6AB3F5402F3BD07B685B6AB3F5801F29
:1021E00036D07B685B6AB3F5A01F31D07B685B6A31
:1021F000B3F5C01F2CD07B685B6AB3F5E01F27D016
:102200007B685B6AB3F5001F22D07B685B6AB3F51D
:10221000101F1DD07B685B6AB3F5201F18D07B6848
:102220005B6AB3F5301F13D07B685B6AB3F5401F60
:102230000ED07B685B6AB3F5501F09D07B685B6A80
:10224000B3F5601F04D040F2B721474802F099FB74
:10225000464B00221A60FFF713FD386108E0FFF7D4
:102260000FFD02463B69D31A022B01D9032375E007
:102270003C4B1B6803F00073002BF0D17B681B6A9A
:10228000B3F5803F16D17B689B68002B09D07B6833
:102290009B68B3F5003F04D040F2CD21324802F0F4
:1022A00070FB304B5B6823F400327B689B682D49E0
:1022B00013434B602B4B5B6823F474127B68196AE1
:1022C0007B685B6A0B43274913434B60274B012212
:1022D0001A60FFF7D5FC386108E0FFF7D1FC024631
:1022E0003B69D31A022B01D9032337E01D4B1B682E
:1022F00003F00073002BF0D02FE01C4B00221A607B
:10230000FFF7BEFC386108E0FFF7BAFC02463B6904
:10231000D31A022B01D9032320E0124B1B6803F0D0
:102320000073002BF0D118E07B68DB69012B01D131
:10233000012313E00B4B5B68FB60FB6803F4803206
:102340007B681B6A9A4206D1FB6803F470127B68B3
:102350005B6A9A4201D0012300E000231846183737
:10236000BD4680BD00100240BC64000860004242CF
:1023700080B584B000AF786039607B68002B01D1F4
:10238000012376E17B681B6803F00103002B16D163
:102390007B681B6803F00203002B10D17B681B686D
:1023A00003F00403002B0AD17B681B6803F00803C9
:1023B000002B04D140F23631744802F0E2FA3B6857
:1023C000002B0AD03B68012B07D03B68022B04D0BE
:1023D00040F237316D4802F0D4FA6D4B1B6803F0C0
:1023E00007033A689A4210D9694B1B6823F0070229
:1023F00067493B6813430B60654B1B6803F0070399
:102400003A689A4201D0012333E17B681B6803F0EC
:102410000203002B49D07B681B6803F00403002BE8
:1024200005D05C4B5B685B4A43F4E06353607B68B8
:102430001B6803F00803002B05D0564B5B68554A18
:1024400043F4605353607B689B68002B24D07B6807
:102450009B68802B20D07B689B68902B1CD07B686E
:102460009B68A02B18D07B689B68B02B14D07B682E
:102470009B68C02B10D07B689B68D02B0CD07B68EE
:102480009B68E02B08D07B689B68F02B04D040F25F
:102490005D313E4802F075FA3E4B5B6823F0F00276
:1024A0007B689B683B4913434B607B681B6803F068
:1024B0000103002B51D07B685B68002B0CD07B683C
:1024C0005B68012B08D07B685B68022B04D04FF45B
:1024D00059712E4802F055FA7B685B68012B07D1D1
:1024E0002C4B1B6803F40033002B15D10123C0E0F3
:1024F0007B685B68022B07D1264B1B6803F00073D7
:10250000002B09D10123B4E0224B1B6803F0020326
:10251000002B01D10123ACE01E4B5B6823F00302CA
:102520007B685B681B4913434B60FFF7A9FBF860AE
:102530000AE0FFF7A5FB0246FB68D31A41F2883296
:10254000934201D9032394E0124B5B6803F00C0221
:102550007B685B689B009A42EBD10D4B1B6803F0D4
:1025600007033A689A4217D2094B1B6823F0070207
:1025700007493B6813430B60054B1B6803F00703D7
:102580003A689A4208D0012373E000BFBC64000897
:1025900000200240001002407B681B6803F0040327
:1025A000002B25D07B68DB68002B18D07B68DB68AC
:1025B000B3F5806F13D07B68DB68B3F5A06F0ED0E6
:1025C0007B68DB68B3F5C06F09D07B68DB68B3F567
:1025D000E06F04D040F2A231284802F0D2F9284B33
:1025E0005B6823F4E0627B68DB68254913434B603A
:1025F0007B681B6803F00803002B26D07B681B69EF
:10260000002B18D07B681B69B3F5806F13D07B68F3
:102610001B69B3F5A06F0ED07B681B69B3F5C06F63
:1026200009D07B681B69B3F5E06F04D040F2A93193
:10263000124802F0A6F9124B5B6823F460527B68E3
:102640001B69DB000E4913434B6000F021F8024682
:102650000B4B5B681B0903F00F030A49CB5C22FAA2
:1026600003F3094A1360094B1B681846FFF7C6FAC3
:10267000002318461037BD4680BD00BFBC6400086B
:102680000010024014660008000000200400002032
:1026900080B487B000AF0023FB600023BB60002341
:1026A0007B6100237B6000233B611E4B5B68FB600A
:1026B000FB6803F00C03042B02D0082B03D027E0A7
:1026C000194B3B6127E0FB689B0C03F00F03174A93
:1026D000D35C7B60FB6803F48033002B10D0114B7C
:1026E0005B685B0C03F00103114AD35CBB607B6841
:1026F0000D4A03FB02F2BB68B2FBF3F37B6104E01B
:102700007B680C4A02FB03F37B617B693B6102E05F
:10271000054B3B6100BF3B6918461C37BD4680BC7A
:10272000704700BF0010024000127A002C660008BB
:102730003C66000800093D0080B400AF024B1B68F6
:102740001846BD4680BC70470000002080B500AF31
:10275000FFF7F2FF0246054B5B681B0A03F0070315
:102760000349CB5C22FA03F3184680BD00100240F7
:102770002466000880B500AFFFF7DEFF0246054B78
:102780005B68DB0A03F007030349CB5C22FA03F31F
:10279000184680BD001002402466000880B485B051
:1027A00000AF78600A4B1B680A4AA2FB03235B0A4E
:1027B0007A6802FB03F3FB6000BFFB685A1EFA60F5
:1027C000002BF9D100BF00BF1437BD4680BC704755
:1027D00000000020D34D621080B58AB000AF786051
:1027E000396000237B6200233B627B68964A9342F8
:1027F00013D07B68954A93420FD07B68944A9342EA
:102800000BD07B68934A934207D07B68924A9342ED
:1028100003D0BD21914802F0B4F83B681B689BB21D
:10282000002B04D03B681B68B3F5803F03D3BE2167
:102830008A4802F0A6F83B685B68002B00F01D8216
:102840003B685B68012B00F018823B685B68112BCA
:1028500000F013823B685B68022B00F00E823B683D
:102860005B68122B00F009823B685B687C4A9342EC
:1028700000F003823B685B687A4A934200F0FD8176
:102880003B685B68784A934200F0F7813B685B687D
:10289000764A934200F0F1813B685B68744A934248
:1028A00000F0EB813B685B68724A934200F0E5817F
:1028B0003B685B68032B00F0E081BF21674802F0B2
:1028C00060F8DAE101227B6A02FA03F3FB613B68FC
:1028D0001B68FA691340BB61BA69FB699A4240F010
:1028E000C9817B68584A934213D07B68574A934208
:1028F0000FD07B68564A93420BD07B68554A93426F
:1029000007D07B68544A934203D0CD21534802F04C
:1029100038F83B685B68574A934200F0C280554ADA
:10292000934200F2E880504A934200F0BA804E4A47
:10293000934200F2E0804E4A934200F0B2804C4A4B
:10294000934200F2D880474A934200F0AA80454A59
:10295000934200F2D080454A934200F0A280434A5D
:10296000934200F2C880122B2CD8122B00F2C380A5
:1029700001A252F823F000BFA32A0008CD290008C5
:102980001F2A0008F12A0008F72A0008F72A000881
:10299000F72A0008F72A0008F72A0008F72A000893
:1029A000F72A0008F72A0008F72A0008F72A000883
:1029B000F72A0008F72A0008F72A0008F529000876
:1029C000792A0008264A93426BD094E03B68DB6882
:1029D000022B0BD03B68DB68012B07D03B68DB6820
:1029E000032B03D0D5211D4801F0CBFF3B68DB68EA
:1029F0003B6281E03B68DB68022B0BD03B68DB6805
:102A0000012B07D03B68DB68032B03D0DC21134884
:102A100001F0B7FF3B68DB6804333B626CE03B6866
:102A2000DB68022B0BD03B68DB68012B07D03B68CF
:102A3000DB68032B03D0E321084801F0A2FF3B68C9
:102A4000DB6808333B6257E000080140000C01409E
:102A5000001001400014014000180140006500080A
:102A600000001110000021100000311000001210B1
:102A700000002210000032103B68DB68022B0BD0F4
:102A80003B68DB68012B07D03B68DB68032B03D076
:102A9000EA21804801F075FF3B68DB680C333B623C
:102AA0002AE03B689B68002B0BD03B689B68012B9E
:102AB00007D03B689B68022B03D0F721754801F0D3
:102AC00060FF3B689B68002B02D104233B6213E04C
:102AD0003B689B68012B05D108233B627B68FA6940
:102AE0001A6109E008233B627B68FA695A6103E0D6
:102AF00000233B6200E000BFBB69FF2B01D87B686D
:102B000001E07B6804337B61BB69FF2B02D87B6AE1
:102B10009B0002E07B6A083B9B003B617B691A6873
:102B20000F213B6901FA03F3DB431A40396A3B6921
:102B300001FA03F31A437B691A603B685B6803F090
:102B40008053002B00F09680534B9B69524A43F010
:102B500001039361504B9B6903F00103BB60BB68A9
:102B60004E4A7B6A9B08023352F82330FB607B6A33
:102B700003F003039B000F2202FA03F3DB43FA681E
:102B80001340FB607B68464A934213D07B68454AFA
:102B900093420DD07B68444A934207D07B68434AF6
:102BA000934201D1032306E0042304E0022302E060
:102BB000012300E000237A6A02F0030292009340AE
:102BC000FA681343FB6035497B6A9B080233FA6855
:102BD00041F823203B685B6803F48013002B06D088
:102BE000334B9A683249BB6913438B6006E0304B24
:102BF0009A68BB69DB432E4913408B603B685B6876
:102C000003F40013002B06D0294BDA682849BB696E
:102C10001343CB6006E0264BDA68BB69DB432449EB
:102C20001340CB603B685B6803F40033002B06D095
:102C30001F4B5A681E49BB6913434B6006E01C4B8F
:102C40005A68BB69DB431A4913404B603B685B68B9
:102C500003F48033002B06D0154B1A681449BB6966
:102C600013430B6006E0124B1A68BB69DB43104943
:102C700013400B607B6A01337B623B681A687B6A96
:102C800022FA03F3002B7FF41DAE00BF00BF2837EC
:102C9000BD4680BD006500080010024000000140F4
:102CA00000080140000C01400010014000140140E8
:102CB0000004014080B582B000AF78600B467B8095
:102CC00013467B707B88002B04D14FF4EA710E48C9
:102CD00001F057FE7B78002B07D07B78012B04D0C6
:102CE00040F2D511084801F04CFE7B78002B03D050
:102CF0007A887B681A6103E07B881A047B681A6112
:102D000000BF0837BD4680BD0065000880B584B0AF
:102D100000AF78600B467B807B88002B04D14FF49A
:102D2000F6710A4801F02DFE7B68DB68FB607A884B
:102D3000FB6813401A04FB68D9437B880B401A4395
:102D40007B681A6100BF1037BD4680BD0065000872
:102D500080B584B000AF78600023FB607B68002BF7
:102D600001D10123DAE07B681B686E4A934221D0CF
:102D70007B681B686C4A93421CD07B681B686B4A5B
:102D8000934217D07B681B68694A934212D07B68D4
:102D90001B68684A93420DD07B681B68664A934261
:102DA00008D07B681B68654A934203D09921644828
:102DB00001F0E7FD7B685B68002B0CD07B685B68EB
:102DC000102B08D07B685B68B3F5804F03D09A2145
:102DD0005B4801F0D6FD7B689B68402B07D07B6881
:102DE0009B68002B03D09B21554801F0CAFD7B68EE
:102DF000DB68802B07D07B68DB68002B03D09C212D
:102E00004F4801F0BEFD7B681B69002B0DD07B682D
:102E10001B69B3F5807F08D07B681B69B3F5007F21
:102E200003D09D21464801F0ACFD7B685B69002B17
:102E30000DD07B685B69B3F5806F08D07B685B69F8
:102E4000B3F5006F03D09E213D4801F09AFD7B68E9
:102E50009B69002B07D07B689B69202B03D09F21A7
:102E6000374801F08EFD7B68DB69002B12D07B6850
:102E7000DB69B3F5805F0DD07B68DB69B3F5005F7C
:102E800008D07B68DB69B3F5405F03D0A0212C48F4
:102E900001F077FD7B681B681A462A4B13442A4AC7
:102EA000A2FB03231B099A007B681A647B68274AEC
:102EB000DA637B68022283F821207B681B681B6829
:102EC000FB60FB6823F47F5323F03003FB607B68D7
:102ED0005A687B689B681A437B68DB681A437B6887
:102EE0001B691A437B685B691A437B689B691A43B9
:102EF0007B68DB691343FA681343FB607B681B68DC
:102F0000FA681A607B6800229A637B68012283F862
:102F100021207B68002283F82020002318461037E8
:102F2000BD4680BD080002401C0002403000024047
:102F300044000240580002406C0002408000024001
:102F400044650008F8FFFDBFCDCCCCCC00000240AA
:102F500080B586B000AFF860B9607A603B6000234E
:102F6000FB753B68002B03D03B68B3F5803F04D36F
:102F70004FF4B7712C4801F004FDFB6893F8203042
:102F8000012B01D102234BE0FB68012283F82020B2
:102F9000FB6893F82130DBB2012B3AD1FB680222A7
:102FA00083F82120FB6800229A63FB681B681A687B
:102FB000FB681B6822F001021A603B687A68B968F6
:102FC000F86800F0EDF9FB68DB6A002B08D0FB68BD
:102FD0001B681A68FB681B6842F00E021A600FE05B
:102FE000FB681B681A68FB681B6822F004021A6001
:102FF000FB681B681A68FB681B6842F00A021A60CB
:10300000FB681B681A68FB681B6842F001021A60C3
:1030100005E0FB68002283F820200223FB75FB7D7E
:1030200018461837BD4680BD4465000880B485B099
:1030300000AF78600023FB737B6893F82130DBB22C
:10304000022B08D07B6804229A637B68002283F8F5
:103050002020012320E07B681B681A687B681B68BE
:1030600022F00E021A607B681B681A687B681B6876
:1030700022F001021A607B681A6C7B68DB6B01210D
:1030800001FA02F25A607B68012283F821207B68F2
:10309000002283F82020FB7B18461437BD4680BCF5
:1030A0007047000080B584B000AF78600023FB73E8
:1030B0007B6893F82130DBB2022B05D07B680422B9
:1030C0009A630123FB7351E07B681B681A687B6875
:1030D0001B6822F00E021A607B681B681A687B6806
:1030E0001B6822F001021A607B681B68224A934227
:1030F00029D07B681B68214A934222D07B681B68D9
:103100001F4A93421AD07B681B681E4A934212D012
:103110007B681B681C4A93420AD07B681B681B4A69
:10312000934202D14FF480130EE04FF080730BE016
:103130004FF4803308E04FF4805305E04FF4807380
:1031400002E0102300E00123114A53607B68012252
:1031500083F821207B68002283F820207B685B6B4A
:10316000002B03D07B685B6B78689847FB7B184625
:103170001037BD4680BD00BF080002401C00024061
:103180003000024044000240580002406C000240FF
:103190000000024080B584B000AF78607B68DB6BD4
:1031A0001B68FB607B681B681B68BB607B681B6CD3
:1031B00004229A40FB681340002B4FD0BB6803F0F9
:1031C0000403002B4AD07B681B681B6803F02003B4
:1031D000002B07D17B681B681A687B681B6822F08C
:1031E00004021A607B681B68664A934229D07B6898
:1031F0001B68654A934222D07B681B68634A9342EE
:103200001AD07B681B68624A934212D07B681B68A5
:10321000604A93420AD07B681B685F4A934202D19E
:103220004FF480030EE04FF080630BE04FF48023F7
:1032300008E04FF4804305E04FF4806302E0402350
:1032400000E00423554A53607B68DB6A002B00F0E2
:1032500094807B68DB6A786898478EE07B681B6C9B
:1032600002229A40FB681340002B56D0BB6803F043
:103270000203002B51D07B681B681B6803F02003FE
:10328000002B0BD17B681B681A687B681B6822F0D7
:103290000A021A607B68012283F821207B681B6880
:1032A000384A934229D07B681B68374A934222D020
:1032B0007B681B68354A93421AD07B681B68344A86
:1032C000934212D07B681B68324A93420AD07B68D3
:1032D0001B68314A934202D14FF400130EE04FF0C5
:1032E00000730BE04FF4003308E04FF4005305E0A7
:1032F0004FF4007302E0202300E00223274A5360CA
:103300007B68002283F820207B689B6A002B34D0E6
:103310007B689B6A786898472FE07B681B6C082263
:103320009A40FB681340002B28D0BB6803F00803C9
:10333000002B23D07B681B681A687B681B6822F00F
:103340000E021A607B681A6C7B68DB6B012101FA44
:1033500002F25A607B6801229A637B68012283F83B
:1033600021207B68002283F820207B681B6B002BC8
:1033700004D07B681B6B7868984700BF00BF10378C
:10338000BD4680BD080002401C00024030000240E3
:1033900044000240580002406C000240000002401D
:1033A00080B485B000AFF860B9607A603B60FB68BC
:1033B0001A6CFB68DB6B012101FA02F25A60FB68B0
:1033C0001B683A685A60FB685B68102B08D1FB6881
:1033D0001B687A689A60FB681B68BA68DA6007E065
:1033E000FB681B68BA689A60FB681B687A68DA60D9
:1033F00000BF1437BD4680BC7047000080B485B064
:1034000000AF78607B6803F00703FB600C4BDB6860
:10341000BB60BA684FF6FF031340BB60FB681A023B
:10342000BB68134343F0BF6343F40033BB60044AFB
:10343000BB68D36000BF1437BD4680BC704700BF77
:1034400000ED00E080B400AF044BDB681B0A03F022
:1034500007031846BD4680BC704700BF00ED00E082
:1034600080B483B000AF0346FB7197F90730002B9F
:103470000BDBFB7903F01F02064997F907305B0964
:10348000012000FA02F241F8232000BF0C37BD46AC
:1034900080BC704700E100E080B483B000AF034619
:1034A0003960FB7197F90730002B0ADB3B68DAB211
:1034B0000C4997F907301201D2B20B4483F800236C
:1034C0000AE03B68DAB20849FB7903F00F03043BDA
:1034D0001201D2B20B441A7600BF0C37BD4680BC35
:1034E000704700BF00E100E000ED00E080B489B06B
:1034F00000AFF860B9607A60FB6803F00703FB6116
:10350000FB69C3F10703042B28BF0423BB61FB69DC
:103510000433062B02D9FB69033B00E000237B61E7
:103520004FF0FF32BB6902FA03F3DA43BB681A407B
:103530007B699A404FF0FF317B6901FA03F3D9436D
:103540007B680B40134318462437BD4680BC704748
:1035500080B582B000AF78607B68013BB3F1807FBB
:1035600001D301230FE00A4A7B68013B53600F211E
:103570004FF0FF30FFF790FF054B00229A60044B9D
:1035800007221A60002318460837BD4680BD00BFD9
:1035900010E000E080B582B000AF78607B68072B58
:1035A0000FD07B68062B0CD07B68052B09D07B687D
:1035B000042B06D07B68032B03D09121044801F033
:1035C000E0F97868FFF71AFF00BF0837BD4680BDF5
:1035D0008865000880B586B000AF0346B9607A60A0
:1035E000FB7300237B617B680F2B03D9A9210E4855
:1035F00001F0C7F9BB680F2B03D9AA210A4801F0D3
:10360000C0F9FFF71FFF78617A68B9687869FFF73A
:103610006DFF024697F90F3011461846FFF73CFF41
:1036200000BF1837BD4680BD8865000880B582B0F0
:1036300000AF0346FB7197F90730002B03DABD2179
:10364000054801F09EF997F907301846FFF708FF83
:1036500000BF0837BD4680BD8865000880B582B0D0
:1036600000AF78607868FFF773FF034618460837A5
:10367000BD4680BD80B582B000AF78607B68002B0E
:1036800001D1012395E07B689B69002B2CD07B68DE
:103690001B684A4A93420ED07B681B68484A934293
:1036A00009D07B681B68474A934204D04FF4B77136
:1036B000454801F066F97B689B69002B28D07B6840
:1036C0009B69B3F5807F23D07B689B69B3F5007F4E
:1036D0001ED07B689B69B3F5407F19D040F26F1113
:1036E000394801F04EF913E07B681B68334A934276
:1036F0000ED07B681B68324A934209D07B681B68F6
:10370000304A934204D040F273112F4801F039F946
:103710007B689B68002B09D07B689B68B3F5805F52
:1037200004D040F27511284801F02BF97B6893F81A
:103730004130DBB2002B06D17B68002283F84020A9
:10374000786801F08FFA7B68242283F841207B6837
:103750001B68DA687B681B6822F40052DA607868BC
:1037600000F040FF7B681B681A697B681B6822F4C5
:1037700090421A617B681B685A697B681B6822F05B
:103780002A025A617B681B68DA687B681B6842F40E
:103790000052DA607B6800225A647B68202283F83A
:1037A00041207B68202283F842207B6800225A63F4
:1037B000002318460837BD4680BD00BF00380140D1
:1037C0000044004000480040D065000880B58CB03F
:1037D00000AFF860B9601346FB80FB6893F8413096
:1037E000DBB2202B56D1BB68002B02D0FB88002B0C
:1037F00001D101234FE0BA68FB681A62FB68FA88BE
:103800009A84FB68FA88DA84FB6800225A64FB68B1
:10381000212283F84120FB689B6B214A9A62FB6856
:103820009B6B204ADA62FB689B6B1F4A1A63FB683A
:103830009B6B00225A6307F10803FB62FB68986BDD
:10384000FB6A1968FB681B6804331A46FB88FFF79C
:103850007FFBFB681B686FF040021A60FB681B6807
:103860001433BB61BB6953E8003F7B617B6943F064
:103870008003BB62FB681B681433BA6A7A623B62DE
:10388000396A7A6A41E80023FB61FB69002BE5D1C4
:10389000002300E0022318463037BD4680BD00BF3C
:1038A0007B3E0008153F00089940000880B584B0B1
:1038B00000AFF860B9601346FB80FB6893F84230B4
:1038C000DBB2202B12D1BB68002B02D0FB88002B6F
:1038D00001D101230BE0FB6800221A63FB881A4622
:1038E000B968F86800F022FC034600E0022318469D
:1038F0001037BD4680BD000080B5BAB000AF78601B
:103900007B681B681B68C7F8E4307B681B68DB6852
:10391000C7F8E0307B681B685B69C7F8DC300023C0
:10392000C7F8D8300023C7F8D430D7F8E43003F014
:103930000F03C7F8D830D7F8D830002B0FD1D7F8FD
:10394000E43003F02003002B09D0D7F8E03003F077
:103950002003002B03D0786800F086FD5BE2D7F8E7
:10396000D830002B00F0DE80D7F8DC3003F0010304
:10397000002B06D1D7F8E03003F49073002B00F051
:10398000D180D7F8E43003F00103002B0BD0D7F837
:10399000E03003F48073002B05D07B685B6C43F050
:1039A00001027B685A64D7F8E43003F00403002B6B
:1039B0000BD0D7F8DC3003F00103002B05D07B6877
:1039C0005B6C43F002027B685A64D7F8E43003F082
:1039D0000203002B0BD0D7F8DC3003F00103002BDF
:1039E00005D07B685B6C43F004027B685A64D7F8AF
:1039F000E43003F00803002B11D0D7F8E03003F0D7
:103A00002003002B05D1D7F8DC3003F00103002B95
:103A100005D07B685B6C43F008027B685A647B6866
:103A20005B6C002B00F0F281D7F8E43003F0200348
:103A3000002B08D0D7F8E03003F02003002B02D091
:103A4000786800F011FD7B681B685B6903F0400338
:103A5000002B14BF01230023DBB2C7F8D4307B68EE
:103A60005B6C03F00803002B03D1D7F8D430002B94
:103A70004FD0786800F01BFC7B681B685B6903F023
:103A80004003002B41D07B681B681433C7F89C307F
:103A9000D7F89C3053E8003FC7F89830D7F89830F3
:103AA00023F04003C7F8D0307B681B681433D7F885
:103AB000D020C7F8A820C7F8A430D7F8A410D7F8AA
:103AC000A82041E80023C7F8A030D7F8A030002B89
:103AD000D9D17B68DB6B002B13D07B68DB6B7E4A14
:103AE0005A637B68DB6B1846FFF7DCFA0346002B52
:103AF00016D07B68DB6B5B6B7A68D26B104698479D
:103B00000EE0786800F0A5F90AE0786800F0A1F905
:103B100006E0786800F09DF97B6800225A6475E140
:103B200000BF73E17B681B6B012B40F04F81D7F81E
:103B3000E43003F01003002B00F04881D7F8E030A8
:103B400003F01003002B00F041810023BB607B6871
:103B50001B681B68BB607B681B685B68BB60BB68DD
:103B60007B681B685B6903F04003002B00F0B680A4
:103B70007B68DB6B1B685B68A7F8BE30B7F8BE30AC
:103B8000002B00F045817B689B8DB7F8BE209A42E0
:103B900080F03E817B68B7F8BE20DA857B68DB6BFE
:103BA0009B69202B00F088807B681B680C33C7F86A
:103BB0008830D7F8883053E8003FC7F88430D7F80A
:103BC000843023F48073C7F8B8307B681B680C33EB
:103BD000D7F8B820C7F89420C7F89030D7F89010DD
:103BE000D7F8942041E80023C7F88C30D7F88C3000
:103BF000002BD9D17B681B6814337B677B6F53E83C
:103C0000003F3B673B6F23F00103C7F8B4307B688C
:103C10001B681433D7F8B420C7F88020FB67F96F0E
:103C2000D7F8802041E80023BB67BB6F002BE1D1B0
:103C30007B681B6814333B663B6E53E8003FFB65B3
:103C4000FB6D23F04003C7F8B0307B681B6814336A
:103C5000D7F8B020FA66BB66B96EFA6E41E8002369
:103C60007B667B6E002BE3D17B68202283F84220A9
:103C70007B6800221A637B681B680C33FB64FB6C57
:103C800053E8003FBB64BB6C23F01003C7F8AC30B3
:103C90007B681B680C33D7F8AC20BA657B65796DFF
:103CA000BA6D41E800233B653B6D002BE3D17B6897
:103CB000DB6B1846FFF7BAF97B6802225A637B6810
:103CC0009A8D7B68DB8D9BB2D31A9BB219467868BC
:103CD00000F0C8F89CE000BF734300087B689A8D31
:103CE0007B68DB8D9BB2D31AA7F8CE307B68DB8D67
:103CF0009BB2002B00F08E80B7F8CE30002B00F086
:103D000089807B681B680C33BB63BB6B53E8003F47
:103D10007B637B6B23F49073C7F8C8307B681B68A8
:103D20000C33D7F8C8207A643B64396C7A6C41E86C
:103D30000023FB63FB6B002BE3D17B681B68143310
:103D40007B627B6A53E8003F3B623B6A23F00103DE
:103D5000C7F8C4307B681B681433D7F8C4203A63B3
:103D6000FB62F96A3A6B41E80023BB62BB6A002B35
:103D7000E3D17B68202283F842207B6800221A630B
:103D80007B681B680C333B613B6953E8003FFB6079
:103D9000FB6823F01003C7F8C0307B681B680C3346
:103DA000D7F8C020FA61BB61B969FA6941E800231C
:103DB0007B617B69002BE3D17B6802225A63B7F8F1
:103DC000CE301946786800F04DF823E0D7F8E4309B
:103DD00003F08003002B09D0D7F8E03003F0800314
:103DE000002B03D0786800F0D8FA14E0D7F8E4305C
:103DF00003F04003002B0ED0D7F8E03003F040036F
:103E0000002B08D0786800F017FB04E000BF02E048
:103E100000BF00E000BFE837BD4680BD80B483B07E
:103E200000AF786000BF0C37BD4680BC704780B4DF
:103E300083B000AF786000BF0C37BD4680BC7047D0
:103E400080B483B000AF786000BF0C37BD4680BC43
:103E5000704780B483B000AF786000BF0C37BD46B8
:103E600080BC704780B483B000AF78600B467B8025
:103E700000BF0C37BD4680BC704780B590B000AF26
:103E800078607B685B6AFB637B681B681B6803F078
:103E90002003002B37D1FB6B0022DA84FB6B1B68FD
:103EA00014337B627B6A53E8003F3B623B6A23F03A
:103EB0008003BB63FB6B1B681433BA6B3A63FB6212
:103EC000F96A3A6B41E80023BB62BB6A002BE5D17B
:103ED000FB6B1B680C333B613B6953E8003FFB60A5
:103EE000FB6843F040037B63FB6B1B680C337A6B0E
:103EF000FA61BB61B969FA6941E800237B617B69BA
:103F0000002BE5D102E0F86BFFF788FF00BF4037D8
:103F1000BD4680BD80B584B000AF78607B685B6AC9
:103F2000FB60F868FFF783FF00BF1037BD4680BD18
:103F300080B59CB000AF78607B685B6AFB667B688D
:103F40001B681B6803F02003002B72D1FB6E00225C
:103F5000DA85FB6E1B680C33FB64FB6C53E8003F97
:103F6000BB64BB6C23F48073BB66FB6E1B680C33B5
:103F7000BA6EBA657B65796DBA6D41E800233B6521
:103F80003B6D002BE5D1FB6E1B681433BB63BB6B31
:103F900053E8003F7B637B6B23F001037B66FB6E82
:103FA0001B6814337A6E7A643B64396C7A6C41E82E
:103FB0000023FB63FB6B002BE5D1FB6E1B68143306
:103FC0007B627B6A53E8003F3B623B6A23F040031D
:103FD0003B66FB6E1B6814333A6E3A63FB62F96A08
:103FE0003A6B41E80023BB62BB6A002BE5D1FB6E54
:103FF000202283F84220FB6E1B6B012B19D1FB6E34
:104000001B680C333B613B6953E8003FFB60FB6876
:1040100023F01003FB65FB6E1B680C33FA6DFA612D
:10402000BB61B969FA6941E800237B617B69002BB8
:10403000E5D1FB6E00225A63FB6E1B6B012B06D190
:10404000FB6E9B8D1946F86EFFF70CFF02E0F86ED1
:1040500000F086FF00BF7037BD4680BD80B584B0DC
:1040600000AF78607B685B6AFB60FB6801225A6383
:10407000FB681B6B012B08D1FB689B8D5B089BB217
:104080001946F868FFF7EEFE02E0F868FFF7D8FE81
:1040900000BF1037BD4680BD80B584B000AF7860EA
:1040A0000023FB607B685B6ABB60BB681B685B6965
:1040B00003F08003002B14BF01230023DBB2FB605D
:1040C000BB6893F84130DBB2212B08D1FB68002B91
:1040D00005D0BB680022DA84B86800F0C1F8BB687C
:1040E0001B685B6903F04003002B14BF012300230E
:1040F000DBB2FB60BB6893F84230DBB2222B08D105
:10410000FB68002B05D0BB680022DA85B86800F098
:10411000CEF8BB685B6C43F01002BB685A64B868A9
:10412000FFF797FE00BF1037BD4680BD80B598B041
:1041300000AFF860B9601346FB80BA68FB689A620A
:10414000FB68FA889A85FB6800225A64FB68222281
:1041500083F84220FB68DB6B3E4A9A62FB68DB6BAC
:104160003D4ADA62FB68DB6B3C4A1A63FB68DB6B37
:1041700000225A6307F10803FB65FB68D86BFB68F4
:104180001B6804331946FB6D1A68FB88FEF7E0FED6
:1041900000233B61FB681B681B683B61FB681B6875
:1041A0005B683B613B69FB681B69002B19D0FB68AE
:1041B0001B680C333B643B6C53E8003FFB63FB6BB9
:1041C00043F48073BB65FB681B680C33BA6DFA64FB
:1041D000BB64B96CFA6C41E800237B647B6C002BF8
:1041E000E5D1FB681B681433FB62FB6A53E8003FB0
:1041F000BB62BB6A43F001037B65FB681B68143339
:104200007A6DBA637B63796BBA6B41E800233B63D9
:104210003B6B002BE5D1FB681B681433BB61BB69AA
:1042200053E8003F7B617B6943F040033B65FB68DB
:104230001B6814333A6D7A623B62396A7A6A41E8E4
:104240000023FB61FB69002BE5D100231846603792
:10425000BD4680BD313F00085D4000089940000820
:1042600080B489B000AF78607B681B680C33FB605A
:10427000FB6853E8003FBB60BB6823F0C003FB61F1
:104280007B681B680C33FA69BA617B617969BA692A
:1042900041E800233B613B69002BE5D17B6820228C
:1042A00083F8412000BF2437BD4680BC704780B4EE
:1042B00095B000AF78607B681B680C337B637B6BC9
:1042C00053E8003F3B633B6B23F49073FB647B68D4
:1042D0001B680C33FA6C3A64FB63F96B3A6C41E887
:1042E0000023BB63BB6B002BE5D17B681B681433D9
:1042F0003B623B6A53E8003FFB61FB6923F001032B
:10430000BB647B681B681433BA6CFA62BB62B96A1F
:10431000FA6A41E800237B627B6A002BE5D17B6867
:104320001B6B012B19D17B681B680C33FB60FB688E
:1043300053E8003FBB60BB6823F010037B647B68DD
:104340001B680C337A6CBA617B617969BA6941E8A0
:1043500000233B613B69002BE5D17B68202283F879
:1043600042207B6800221A6300BF5437BD4680BCE0
:10437000704780B584B000AF78607B685B6AFB6093
:10438000FB680022DA85FB680022DA84F868FFF710
:1043900060FD00BF1037BD4680BD80B485B000AF62
:1043A00078607B6893F84130DBB2212B3ED17B688B
:1043B0009B68B3F5805F14D17B681B69002B10D11B
:1043C0007B681B6AFB60FB681B881A467B681B685E
:1043D000C2F308025A607B681B6A9A1C7B681A62E7
:1043E00008E07B681B6A591C7A6811621A787B683E
:1043F0001B685A607B68DB8C9BB2013B9BB27A687E
:104400001946D184002B0FD17B681B68DA687B6862
:104410001B6822F08002DA607B681B68DA687B68C0
:104420001B6842F04002DA60002300E002231846D5
:104430001437BD4680BC704780B582B000AF78604D
:104440007B681B68DA687B681B6822F04002DA60D0
:104450007B68202283F841207868FFF7DFFC002387
:1044600018460837BD4680BD80B58CB000AF786077
:104470007B6893F84230DBB2222B40F0AE807B6841
:104480009B68B3F5805F17D17B681B69002B13D144
:104490000023FB627B689B6ABB627B681B685B686E
:1044A0009BB2C3F308039AB2BB6A1A807B689B6A0B
:1044B0009A1C7B689A6226E07B689B6AFB620023F9
:1044C000BB627B689B68B3F5805F07D07B689B68A5
:1044D000002B0AD17B681B69002B06D17B681B6807
:1044E0005B68DAB2FB6A1A7008E07B681B685B687D
:1044F000DBB203F07F03DAB2FB6A1A707B689B6A57
:104500005A1C7B689A627B68DB8D9BB2013B9BB235
:104510007A681946D185002B5DD17B681B68DA6803
:104520007B681B6822F02002DA607B681B68DA680F
:104530007B681B6822F48072DA607B681B685A69AA
:104540007B681B6822F001025A617B68202283F895
:1045500042207B6800225A637B681B6B012B35D19C
:104560007B6800221A637B681B680C337B617B6964
:1045700053E8003F3B613B6923F010037B627B689B
:104580001B680C337A6A3A62FB61F9693A6A41E85E
:104590000023BB61BB69002BE5D17B681B681B68EE
:1045A00003F01003102B0AD10023FB607B681B680B
:1045B0001B68FB607B681B685B68FB60FB687B6853
:1045C0009B8D19467868FFF74DFC02E0786800F093
:1045D000C7FC002302E0002300E002231846303726
:1045E000BD4680BD80B584B000AF78607B685B68F5
:1045F0005F4A934204D940F675615E4800F0C1F904
:104600007B68DB68002B09D07B68DB68B3F5005F53
:1046100004D040F67661574800F0B3F97B681B6917
:10462000002B0ED07B681B69B3F5806F09D07B68C7
:104630001B69B3F5C06F04D040F677614D4800F0B8
:10464000A0F97B685A694FF6F3731340002B03D12E
:104650007B685B69002B04D140F67861454800F027
:1046600090F97B681B681B6923F440517B68DA680A
:104670007B681B680A431A617B689A687B681B69C0
:104680001A437B685B691343BB607B681B68DB680C
:1046900023F4B05323F00C037A681268B9680B4313
:1046A000D3607B681B685B6923F440717B689A69FF
:1046B0007B681B680A435A617B681B682E4A9342D9
:1046C00003D1FEF757F8F86002E0FEF73FF8F86014
:1046D000FA6813469B0013449A001A447B685B688F
:1046E0009B00B2FBF3F3254AA2FB03235B091901EC
:1046F000FA6813469B0013449A001A447B685B686F
:104700009B00B2FBF3F21D4BA3FB02035B09642089
:1047100000FB03F3D31A1B013233184AA2FB032315
:104720005B0903F0F0031944FA6813469B00134435
:104730009A001A447B685B689B00B2FBF3F20F4B54
:10474000A3FB02035B09642000FB03F3D31A1B01E4
:1047500032330A4AA2FB03235B0903F00F027B6892
:104760001B680A449A6000BF1037BD4680BD00BF79
:1047700020AA4400D0650008003801401F85EB5195
:1047800080B582B000AF104B5B690F4A43F0010364
:1047900053610D4B5B6903F001037B607B68002272
:1047A00000210E20FEF716FF0E20FEF73FFF00222D
:1047B00000211020FEF70EFF1020FEF737FF00BF8C
:1047C0000837BD4680BD00BF0010024080B588B0EC
:1047D00000AF07F1100300221A605A609A60DA6095
:1047E000344B9B69334A43F010039361314B9B690F
:1047F00003F01003FB60FB682E4B9B692D4A43F0CE
:10480000200393612B4B9B6903F02003BB60BB68C3
:10481000284B9B69274A43F004039361254B9B690E
:1048200003F004037B607B68224B9B69214A43F0C1
:10483000080393611F4B9B6903F008033B603B68CF
:1048400000224FF400511C48FEF734FA4FF4005395
:104850003B6101237B610023BB610223FB6107F104
:10486000100319461448FDF7B7FF4FF440433B616E
:1048700003237B6107F1100319460F48FDF7ACFFD6
:1048800049F6F3133B6103237B6107F110031946DB
:104890000A48FDF7A1FF4FF6FF733B6103237B61DD
:1048A00007F1100319460648FDF796FF00BF2037B1
:1048B000BD4680BD001002400010014000080140CC
:1048C000000C014080B500AFFDF782F900F00EF852
:1048D000FFF77CFFFFF754FF00F0FCF800F06EF9E3
:1048E00000F096F900F0A8FA00BFFDE780B590B09F
:1048F00000AF07F1180328220021184601F060FDDF
:104900003B1D00221A605A609A60DA601A61012326
:10491000BB614FF48033FB6100233B620123BB6228
:1049200002237B634FF48033BB634FF4E013FB63DC
:1049300007F118031846FDF7ADF90346002B01D027
:1049400000F019F80F237B600223BB600023FB609B
:104950004FF480633B6100237B613B1D02211846BD
:10496000FDF706FD0346002B01D000F004F800BF60
:104970004037BD4680BD80B400AF72B600BF00BFF7
:10498000FDE780B483B000AF7860396000BF0C37BA
:10499000BD4680BC7047000080B584B000AF194BA5
:1049A0009B69184A43F001039361164B9B6903F01E
:1049B0000103BB60BB68134BDB69124A43F08053B1
:1049C000D361104BDB6903F080537B607B6800226E
:1049D00000210520FEF7FEFD0520FEF727FE0A4B0D
:1049E0005B68FB60FB6823F0E063FB60FB6843F0FF
:1049F0000073FB60044AFB68536000BF1037BD467C
:104A000080BD00BF001002400000014080B400AF34
:104A100000BFFDE780B400AF00BFFDE780B400AF8A
:104A200000BFFDE780B400AF00BFFDE780B400AF7A
:104A300000BFFDE780B400AF00BFBD4680BC70473B
:104A400080B400AF00BFBD4680BC704780B400AFEB
:104A500000BFBD4680BC704780B500AFFDF7FEF8D3
:104A600000BF80BD80B400AF00BFBD4680BC7047B2
:104A700080B500AF0248FEF78DFB00BF80BD00BFD0
:104A80000401002080B500AF0248FEF783FB00BFA1
:104A900080BD00BF4801002080B500AF0248FCF790
:104AA00011FB00BF80BD00BF2C00002080B500AF0F
:104AB0000248FEF721FF00BF80BD00BF7400002048
:104AC00080B500AF0248FEF717FF00BF80BD00BFF2
:104AD000BC00002080B586B000AF07F108030022BB
:104AE0001A605A609A60DA603B4600221A605A6087
:104AF0001D4B1E4A1A601C4B47225A601A4B00225B
:104B00009A60194B40F2E732DA60174B00221A61C3
:104B1000154B00229A611448FCF7B0F90346002BAC
:104B200001D0FFF728FF4FF48053BB6007F1080363
:104B300019460D48FCF7B6FB0346002B01D0FFF7E2
:104B40001AFF00233B6000237B603B461946064862
:104B5000FCF782FF0346002B01D0FFF70CFF00BFDC
:104B60001837BD4680BD00BF2C0000200004004067
:104B700080B584B000AF78607B681B680D4A9342B3
:104B800013D10D4BDB690C4A43F00203D3610A4B8E
:104B9000DB6903F00203FB60FB68002200211D209B
:104BA000FEF718FD1D20FEF741FD00BF1037BD4682
:104BB00080BD00BF000400400010024080B500AF7F
:104BC000114B124A1A60104B4FF4E1325A600E4BEF
:104BD00000229A600C4B0022DA600B4B00221A6113
:104BE000094B0C225A61084B00229A61064B0022A5
:104BF000DA610548FEF73EFD0346002B01D0FFF7C2
:104C0000BAFE00BF80BD00BF740000200038014024
:104C100080B500AF114B124A1A60104B4FF4E132CD
:104C20005A600E4B00229A600C4B0022DA600B4B4C
:104C300000221A61094B0C225A61084B00229A612A
:104C4000064B0022DA610548FEF714FD0346002BEF
:104C500001D0FFF790FE00BF80BD00BFBC00002068
:104C60000044004080B58AB000AF786007F11803B7
:104C700000221A605A609A60DA607B681B68664A94
:104C8000934261D1654B9B69644A43F480439361CD
:104C9000624B9B6903F480437B617B695F4B9B693B
:104CA0005E4A43F0040393615C4B9B6903F0040389
:104CB0003B613B694FF40073BB610223FB6103233B
:104CC0007B6207F1180319465548FDF785FD4FF43F
:104CD0008063BB610023FB6100233B6207F1180383
:104CE00019464F48FDF778FD4E4B4F4A1A604D4B21
:104CF00010225A604B4B00229A604A4B8022DA60A5
:104D0000484B00221A61474B00225A61454B002252
:104D10009A61444B4FF44052DA614248FEF718F86A
:104D20000346002B01D0FFF726FE7B683D4A9A63BD
:104D30003C4A7B685362002200212520FEF74AFC92
:104D40002520FEF773FC63E07B681B68374A9342BB
:104D50005ED1324BDB69314A43F40033D3612F4BD0
:104D6000DB6903F40033FB60FB682C4B9B692B4A27
:104D700043F004039361294B9B6903F00403BB6078
:104D8000BB680423BB610223FB6103237B6207F141
:104D9000180319462248FDF71FFD0823BB610023B5
:104DA000FB6100233B6207F1180319461C48FDF71D
:104DB00013FD1F4B1F4A1A601D4B00225A601C4BEB
:104DC00000229A601A4B8022DA60194B00221A6185
:104DD000174B00225A61164B20229A61144B4FF454
:104DE0004052DA611248FDF7B3FF0346002B01D0B1
:104DF000FFF7C1FD7B680E4ADA630D4A7B68536298
:104E0000002200212620FEF7E5FB2620FEF70EFCFF
:104E100000BF2837BD4680BD003801400010024069
:104E2000000801400401002044000240004400400A
:104E3000480100206C00024080B500AF09220449FF
:104E40000448FEF733FD0448FCF7D0F800BF80BDEE
:104E50008C010020BC0000202C000020000000007D
:104E600080B500AF2E4B1B6801332D4A13602C4BCD
:104E70001B682C4A13602A4B1B681846FBF7E4FD9D
:104E8000034629491846FBF7EBFE03461846FBF795
:104E9000CDFB02460B461046194600F025F91EA32D
:104EA000D3E90023FBF734F902460B4610461946B6
:104EB000FBF7C4FC03461B4A53601A4B1B68194A94
:104EC00052681146184600F063F8154B1A68174BE4
:104ED000A3FB02139B094FF47A7101FB03F3D31A6E
:104EE000002B04D14FF400511148FDF70FFF0C4B7C
:104EF0001A68104BA3FB02135B09642101FB03F347
:104F0000D31A002B04D109220B490C48FEF75EFC92
:104F100000BF80BDAFF30080000000000070A7401C
:104F2000A4010020A801002000007A44D34D6210A3
:104F3000001001401F85EB519801002074000020F3
:104F400080B582B000AF78607B68044A934201D19B
:104F5000FFF786FF00BF0837BD4680BD2C0000204C
:104F600080B582B000AF78607B68074A934207D172
:104F7000064800F049F8092204490348FEF796FC68
:104F800000BF0837BD4680BDBC0000208C0100205A
:104F900080B584B000AF786039601A4BAA221A70CD
:104FA000184BBB225A70174BCC229A707B681B0E91
:104FB000DAB2144BDA707B681B0CDAB2114B1A713F
:104FC0007B681B0ADAB20F4B5A717B68DAB20D4B61
:104FD0009A713868FBF7E0FE03461BB29BB203F6FA
:104FE000B8339BB2FB81B7F90E301B121BB2DAB299
:104FF000044BDA71FB89DAB2024B1A7200BF103728
:10500000BD4680BD9801002080B584B000AF7860B7
:105010007B681B78AA2B38D17B6801331B78BB2BAC
:1050200033D17B6802331B78CC2B2ED17B680333C2
:105030001B781A067B6804331B781B041A437B68B1
:1050400005331B781B0213437A6806321278134328
:10505000104A13607B6807331B781BB21B021AB21D
:105060007B6808331B781BB21343FB81B7F90E3002
:105070001846FBF7EDFC034607491846FBF732FCE0
:1050800003461A46034B5A6000E000BF1037BD4686
:1050900080BD00BFB001002000803B45FBF7E8FE6B
:1050A0000B480C490C4A002302E0D458C450043386
:1050B000C4188C42F9D3094A094C002301E013605B
:1050C0000432A242FBD301F083F9FFF7FBFB7047E8
:1050D000000000200C000020206800080C000020C8
:1050E000B8010020FEE7000070B5204A21F000431F
:1050F000934286B01ED91E4A934205D902460B46FA
:10510000FBF734F906B070BD02AA00F015FADDE92C
:1051100004450346DDE9020103F00303012B1BD024
:10512000022B0FD0EBB9012622462B46009600F049
:105130004BF9E7E7002400220023009400F044F933
:1051400006B070BD012622462B46009600F03CF9C1
:1051500001F1004106B070BD22462B4600F00CF86C
:10516000D0E722462B4600F007F8F1E7FB21E93FA4
:10517000FFFFEF7F000000002DE9F04F21F0004815
:10518000B8F1795F06460F4692469B4685B06DD2D0
:10519000FBF72CFB002800F0ED8032463B46304602
:1051A0003946FAF7B5FF76A3D3E9002304460D4646
:1051B000FAF7AEFF74A3D3E90023FBF7D9F8224630
:1051C0002B46FAF7A5FF72A3D3E90023FBF7CEF82D
:1051D00022462B46FAF79CFF6FA3D3E90023FBF787
:1051E000C7F822462B46FAF793FF6DA3D3E90023B5
:1051F000FBF7BCF822462B46FAF78AFF6AA3D3E9ED
:105200000023FBF7B5F822462B46FAF781FFCDE9DC
:105210000001002220462946654BFAF779FFDDE9B7
:1052200000238046894620462946FAF771FF444606
:105230004D468046894652465B4630463946FAF727
:1052400067FF02460B4640464946FBF78FF8024689
:105250000B4620462946FBF789F802460B460020FC
:105260005449FBF783F805B0BDE8F08F02460B46C2
:10527000FAF74EFF42A3D3E9002304460D46FAF79E
:1052800047FF41A3D3E90023FBF772F822462B46E0
:10529000FAF73EFF3EA3D3E90023FBF767F8224667
:1052A0002B46FAF735FF3CA3D3E90023FBF760F860
:1052B00022462B46FAF72CFF39A3D3E90023FBF74C
:1052C00055F822462B46FAF723FF37A3D3E90023EC
:1052D000FBF74EF82B462246FAF71AFF364BCDE97C
:1052E0000001984595D9354B002298453AD8A8F544
:1052F000001300202F4990469946FBF737F8CDE977
:105300000201002220462946294BFAF701FF4246B6
:105310004B46FBF72BF8DDE9002380468946204603
:105320002946FAF7F5FE44464D46804689465246E0
:105330005B4630463946FAF7EBFE02460B464046DE
:105340004946FBF713F802460B4620462946FBF771
:105350000DF802460B46DDE90201FBF707F805B040
:10536000BDE8F08F164B4FF00008CDE90223DFF8BF
:105370005490C6E700200F4905B0BDE8F08F00BF8C
:10538000D43888BEE9FAA8BDC4B1B4BD9EEE213EB2
:10539000AD529C804F7E923E9015CB19A001FA3EF3
:1053A0007751C1166CC1563F4C5555555555A53FC3
:1053B0000000E03F0000F03F3233D33F0000E93F00
:1053C0000000E73F0000D23F2DE9F04F83B0CDE968
:1053D000002321F00043B3F1795F04460D4604D267
:1053E000FBF704FA002800F0858022462B46204671
:1053F0002946FAF78DFE06460F4632463B462046C2
:105400002946FAF785FE3EA3D3E9002382468B4660
:1054100030463946FAF77CFE3BA3D3E90023FAF77E
:10542000A5FF32463B46FAF773FE39A3D3E90023C2
:10543000FAF79EFF32463B46FAF76AFE36A3D3E9F7
:105440000023FAF793FF32463B46FAF761FE34A396
:10545000D3E90023FAF78CFF0C9B804689469BB367
:10546000DDE900010022324BFAF752FE42464B467C
:105470008046894650465946FAF74AFE02460B4690
:1054800040464946FAF772FF32463B46FAF740FE7D
:10549000DDE90023FAF76AFF23A3D3E900230646D8
:1054A0000F4650465946FAF733FE02460B46304641
:1054B0003946FAF75DFF02460B4620462946FAF7C1
:1054C00055FF03B0BDE8F08F02460B463046394623
:1054D000FAF71EFE14A3D3E90023FAF747FF52465A
:1054E0005B46FAF715FE22462B46FAF741FF03B05A
:1054F000BDE8F08F2046294603B0BDE8F08F00BF1D
:105500007CD5CF5A3AD9E53DEB9C2B8AE6E55A3E4D
:105510007DFEB157E31DC73ED561C119A0012A3FE9
:10552000A6F810111111813F495555555555C53FE4
:105530000000E03F000000002DE9F04F964B21F005
:1055400000459D4282468B4614468FB040F28B80C8
:10555000924B0F469D4228D885A3D3E9002300290A
:1055600040F3A081FAF702FF8D4B06469D420F469D
:1055700000F08D8080A3D3E90023FAF7F7FE0246FE
:105580000B463046394616461F46FAF7EFFE7AA319
:10559000D3E90023FAF7EAFEC4E900670126C4E96B
:1055A000020130460FB0BDE8F08F7E4B9D4240F2C5
:1055B00088807D4B9D4261D82E15A6F21646A5EB3C
:1055C000065949465046FBF711F9FBF71DF802460C
:1055D0000B4650464946CDE90823FAF7C7FE00229C
:1055E000724BFAF795FD89468046FBF7FFF8FBF70B
:1055F0000BF802460B4640464946CDE90A23FAF726
:10560000B5FE0022694BFAF783FD03254FF0000831
:105610004FF00009CDE90C010DF1380A42467AE954
:1056200002014B46AB46013DFBF7AEF80028F5D131
:1056300002255F49324601915B46214608A8009544
:1056400000F084F9002F0646ABDA60682268E16852
:1056500000F10043C4E90023A26801F10043C4E95A
:10566000022376429DE700220023C4E900ABC4E98F
:105670000223002630460FB0BDE8F08F02460B46ED
:10568000FAF774FEC4E90201C4E90001F1E73CA3A2
:10569000D3E90023FAF76AFE3BA3D3E9002380464F
:1056A0008946FAF763FE06460F4632463B464046B9
:1056B0004946FAF75BFE34A3D3E90023FAF756FE16
:1056C0006AE700F03FF932A3D3E900238046894618
:1056D000FAF71EFD0022374BFAF74AFEFBF786F871
:1056E0000646FAF791FF02460B46CDE9022320A3B6
:1056F000D3E90023FAF70CFD02460B464046494623
:10570000FAF734FE1CA3D3E9002382468B46DDE979
:105710000201FAF7FDFC02460B4650465946CDE918
:105720000423FAF723FE1F2E8046894646DC224BCF
:10573000721E53F82230AB4240D042464B46504690
:105740005946C4E90089FAF711FEDDE90423FAF7A6
:105750000DFE002FC4E90201BFF623AF09F100429C
:10576000C4E9008201F10042C4E90202764218E76E
:1057700000004054FB21F93F3163621A61B4D03D0F
:105780000000601A61B4D03D7370032E8A19A33BE8
:1057900083C8C96D305FE43FFB21E93F7BD90240FC
:1057A000FB21F93FFB213941FFFFEF7F00007041F2
:1057B000C06600080000E03F40660008C9F30A53D5
:1057C000C3EB15532A15102B0792B6DD52A3D3E96C
:1057D0000023DDE90201FAF79BFC80468946424638
:1057E0004B4650465946FAF7C1FD02460B46504615
:1057F000594692469B46FAF7B9FD42464B46FAF7A0
:10580000B5FD47A3D3E9002380468946DDE90201BF
:10581000FAF77EFC42464B46FAF7A8FD02460B46D5
:1058200050465946CDE90423FAF7A0FD079AC1F383
:105830000A53D31A312B804689467FF77EAF3AA3AD
:10584000D3E90023DDE90201FAF762FC80468946CC
:1058500042464B4650465946FAF788FD02460B46EB
:105860005046594692469B46FAF780FD42464B46C3
:10587000FAF77CFD2EA3D3E9002380468946DDE9B3
:105880000201FAF745FC42464B46FAF76FFD024625
:105890000B4650465946CDE90423FAF767FD80468A
:1058A00089464AE7FAF764FD254B06469D420F46B6
:1058B00018D021A3D3E90023FAF75AFD02460B467C
:1058C0003046394616461F46FAF750FD1AA3D3E96B
:1058D0000023FAF74DFDC4E90067C4E902014FF067
:1058E000FF365EE60CA3D3E90023FAF741FD0CA3D3
:1058F000D3E9002380468946FAF73AFD06460F466B
:1059000032463B4640464946FAF730FD04A3D3E908
:105910000023FAF72DFDDEE70000601A61B4D03DE8
:105920007370032E8A19A33B0000002E8A19A33B33
:10593000C14920259A837B393163621A61B4D03D15
:10594000FB21F93F21F00043194670472DE9F04F44
:10595000ADF5197DBF4CA29D9C4612F1140F03F1C9
:10596000FF33824654F825600B910293C0F2BC824B
:10597000B949D31E81FB0301DB17C3EBA1030793D6
:105980000133A3EB8303DB00D3180A93079A0CF1CE
:10599000FF3316EB0309A2EB030721D409F1010938
:1059A000B9440DF18008009600244E460025C146FA
:1059B000DDF88CB2E04608E05BF82700FAF724FE39
:1059C0000137B742E9E8020108D0002FF4DA204697
:1059D00029460137B742E9E80201F6D1C446009EE4
:1059E000002EC0F2AE83029CAAF10801039101EBE4
:1059F000CC09A346002000210DF1800A0AEBCC0A55
:105A000070AB4FEACC0706EB0C02002C80F29581BC
:105A10000BF1010B9345E3E802010AF1080AF4D106
:105A2000039B009603EB070A0CAB03EB8603043BD6
:105A300008930CAB03EB8603D3461F4604960A9EDD
:105A4000CDF824C00099CA000DEBC10300290192D2
:105A5000D3E970452DDDCDE905670DF5E07A0DF14F
:105A600030090AEB020800227C4B20462946FAF74F
:105A70004FFBFAF7BBFEFAF7C7FD0022784B06464C
:105A80000F46FAF745FB02460B4620462946FAF731
:105A90006DFCFAF7ABFE78E9022349F8040B3946AE
:105AA0003046FAF765FCD04504460D46DBD1DDE90A
:105AB000056720462946324600F07EFB00224FF063
:105AC0007F5304460D46FAF723FB00F0F5FB002256
:105AD000644BFAF71DFB02460B4620462946FAF7AF
